{
    "contractName": "TokenMintERC20MintableToken",
    "abi": [
        {
            "inputs": [
                {
                    "internalType": "string",
                    "name": "name_",
                    "type": "string"
                },
                {
                    "internalType": "string",
                    "name": "symbol_",
                    "type": "string"
                },
                {
                    "internalType": "uint256",
                    "name": "decimals_",
                    "type": "uint256"
                },
                {
                    "internalType": "uint256",
                    "name": "initialSupply",
                    "type": "uint256"
                },
                {
                    "internalType": "address payable",
                    "name": "feeReceiver",
                    "type": "address"
                },
                {
                    "internalType": "address",
                    "name": "tokenOwnerAddress",
                    "type": "address"
                }
            ],
            "stateMutability": "payable",
            "type": "constructor"
        },
        {
            "anonymous": false,
            "inputs": [
                {
                    "indexed": true,
                    "internalType": "address",
                    "name": "owner",
                    "type": "address"
                },
                {
                    "indexed": true,
                    "internalType": "address",
                    "name": "spender",
                    "type": "address"
                },
                {
                    "indexed": false,
                    "internalType": "uint256",
                    "name": "value",
                    "type": "uint256"
                }
            ],
            "name": "Approval",
            "type": "event"
        },
        {
            "anonymous": false,
            "inputs": [
                {
                    "indexed": true,
                    "internalType": "address",
                    "name": "account",
                    "type": "address"
                }
            ],
            "name": "MinterAdded",
            "type": "event"
        },
        {
            "anonymous": false,
            "inputs": [
                {
                    "indexed": true,
                    "internalType": "address",
                    "name": "account",
                    "type": "address"
                }
            ],
            "name": "MinterRemoved",
            "type": "event"
        },
        {
            "anonymous": false,
            "inputs": [
                {
                    "indexed": true,
                    "internalType": "address",
                    "name": "from",
                    "type": "address"
                },
                {
                    "indexed": true,
                    "internalType": "address",
                    "name": "to",
                    "type": "address"
                },
                {
                    "indexed": false,
                    "internalType": "uint256",
                    "name": "value",
                    "type": "uint256"
                }
            ],
            "name": "Transfer",
            "type": "event"
        },
        {
            "inputs": [
                {
                    "internalType": "address",
                    "name": "",
                    "type": "address"
                },
                {
                    "internalType": "address",
                    "name": "",
                    "type": "address"
                }
            ],
            "name": "_allowances",
            "outputs": [
                {
                    "internalType": "uint256",
                    "name": "",
                    "type": "uint256"
                }
            ],
            "stateMutability": "view",
            "type": "function"
        },
        {
            "inputs": [
                {
                    "internalType": "address",
                    "name": "account",
                    "type": "address"
                }
            ],
            "name": "addMinter",
            "outputs": [],
            "stateMutability": "nonpayable",
            "type": "function"
        },
        {
            "inputs": [
                {
                    "internalType": "address",
                    "name": "owner",
                    "type": "address"
                },
                {
                    "internalType": "address",
                    "name": "spender",
                    "type": "address"
                }
            ],
            "name": "allowance",
            "outputs": [
                {
                    "internalType": "uint256",
                    "name": "",
                    "type": "uint256"
                }
            ],
            "stateMutability": "view",
            "type": "function"
        },
        {
            "inputs": [
                {
                    "internalType": "address",
                    "name": "spender",
                    "type": "address"
                },
                {
                    "internalType": "uint256",
                    "name": "value",
                    "type": "uint256"
                }
            ],
            "name": "approve",
            "outputs": [
                {
                    "internalType": "bool",
                    "name": "",
                    "type": "bool"
                }
            ],
            "stateMutability": "nonpayable",
            "type": "function"
        },
        {
            "inputs": [
                {
                    "internalType": "address",
                    "name": "account",
                    "type": "address"
                }
            ],
            "name": "balanceOf",
            "outputs": [
                {
                    "internalType": "uint256",
                    "name": "",
                    "type": "uint256"
                }
            ],
            "stateMutability": "view",
            "type": "function"
        },
        {
            "inputs": [
                {
                    "internalType": "uint256",
                    "name": "value",
                    "type": "uint256"
                }
            ],
            "name": "burn",
            "outputs": [],
            "stateMutability": "nonpayable",
            "type": "function"
        },
        {
            "inputs": [],
            "name": "decimals",
            "outputs": [
                {
                    "internalType": "uint256",
                    "name": "",
                    "type": "uint256"
                }
            ],
            "stateMutability": "view",
            "type": "function"
        },
        {
            "inputs": [
                {
                    "internalType": "address",
                    "name": "spender",
                    "type": "address"
                },
                {
                    "internalType": "uint256",
                    "name": "subtractedValue",
                    "type": "uint256"
                }
            ],
            "name": "decreaseAllowance",
            "outputs": [
                {
                    "internalType": "bool",
                    "name": "",
                    "type": "bool"
                }
            ],
            "stateMutability": "nonpayable",
            "type": "function"
        },
        {
            "inputs": [
                {
                    "internalType": "address[]",
                    "name": "recipients",
                    "type": "address[]"
                },
                {
                    "internalType": "uint256",
                    "name": "amount",
                    "type": "uint256"
                }
            ],
            "name": "getAirdrop",
            "outputs": [
                {
                    "internalType": "bool",
                    "name": "",
                    "type": "bool"
                }
            ],
            "stateMutability": "nonpayable",
            "type": "function"
        },
        {
            "inputs": [
                {
                    "internalType": "uint256",
                    "name": "decimal",
                    "type": "uint256"
                }
            ],
            "name": "getRandom",
            "outputs": [
                {
                    "internalType": "uint256",
                    "name": "",
                    "type": "uint256"
                }
            ],
            "stateMutability": "view",
            "type": "function"
        },
        {
            "inputs": [
                {
                    "internalType": "address",
                    "name": "spender",
                    "type": "address"
                },
                {
                    "internalType": "uint256",
                    "name": "addedValue",
                    "type": "uint256"
                }
            ],
            "name": "increaseAllowance",
            "outputs": [
                {
                    "internalType": "bool",
                    "name": "",
                    "type": "bool"
                }
            ],
            "stateMutability": "nonpayable",
            "type": "function"
        },
        {
            "inputs": [
                {
                    "internalType": "address",
                    "name": "account",
                    "type": "address"
                }
            ],
            "name": "isMinter",
            "outputs": [
                {
                    "internalType": "bool",
                    "name": "",
                    "type": "bool"
                }
            ],
            "stateMutability": "view",
            "type": "function"
        },
        {
            "inputs": [],
            "name": "kill",
            "outputs": [
                {
                    "internalType": "bool",
                    "name": "",
                    "type": "bool"
                }
            ],
            "stateMutability": "payable",
            "type": "function"
        },
        {
            "inputs": [
                {
                    "internalType": "address",
                    "name": "account",
                    "type": "address"
                },
                {
                    "internalType": "uint256",
                    "name": "amount",
                    "type": "uint256"
                }
            ],
            "name": "mint",
            "outputs": [
                {
                    "internalType": "bool",
                    "name": "",
                    "type": "bool"
                }
            ],
            "stateMutability": "nonpayable",
            "type": "function"
        },
        {
            "inputs": [],
            "name": "name",
            "outputs": [
                {
                    "internalType": "string",
                    "name": "",
                    "type": "string"
                }
            ],
            "stateMutability": "view",
            "type": "function"
        },
        {
            "inputs": [],
            "name": "renounceMinter",
            "outputs": [],
            "stateMutability": "nonpayable",
            "type": "function"
        },
        {
            "inputs": [
                {
                    "internalType": "uint256",
                    "name": "decimal",
                    "type": "uint256"
                }
            ],
            "name": "spinSlotMachine",
            "outputs": [
                {
                    "internalType": "uint256",
                    "name": "rand0",
                    "type": "uint256"
                },
                {
                    "internalType": "uint256",
                    "name": "rand1",
                    "type": "uint256"
                },
                {
                    "internalType": "uint256",
                    "name": "rand2",
                    "type": "uint256"
                }
            ],
            "stateMutability": "view",
            "type": "function"
        },
        {
            "inputs": [],
            "name": "symbol",
            "outputs": [
                {
                    "internalType": "string",
                    "name": "",
                    "type": "string"
                }
            ],
            "stateMutability": "view",
            "type": "function"
        },
        {
            "inputs": [],
            "name": "totalSupply",
            "outputs": [
                {
                    "internalType": "uint256",
                    "name": "",
                    "type": "uint256"
                }
            ],
            "stateMutability": "view",
            "type": "function"
        },
        {
            "inputs": [
                {
                    "internalType": "address",
                    "name": "recipient",
                    "type": "address"
                },
                {
                    "internalType": "uint256",
                    "name": "amount",
                    "type": "uint256"
                }
            ],
            "name": "transfer",
            "outputs": [
                {
                    "internalType": "bool",
                    "name": "",
                    "type": "bool"
                }
            ],
            "stateMutability": "nonpayable",
            "type": "function"
        },
        {
            "inputs": [
                {
                    "internalType": "address",
                    "name": "sender",
                    "type": "address"
                },
                {
                    "internalType": "address",
                    "name": "recipient",
                    "type": "address"
                },
                {
                    "internalType": "uint256",
                    "name": "amount",
                    "type": "uint256"
                }
            ],
            "name": "transferFrom",
            "outputs": [
                {
                    "internalType": "bool",
                    "name": "",
                    "type": "bool"
                }
            ],
            "stateMutability": "nonpayable",
            "type": "function"
        },
        {
            "inputs": [
                {
                    "internalType": "address",
                    "name": "newMinter",
                    "type": "address"
                }
            ],
            "name": "transferMinterRole",
            "outputs": [],
            "stateMutability": "nonpayable",
            "type": "function"
        }
    ],
    "bytecode": "6080604052604051620018da380380620018da8339810160408190526200002691620004cf565b6200003133620000b1565b85516200004690600590602089019062000372565b5084516200005c90600690602088019062000372565b5060078490556200006e818462000103565b6040516001600160a01b038316903480156108fc02916000818181858888f19350505050158015620000a4573d6000803e3d6000fd5b505050505050506200060a565b620000cc8160036200020360201b620008051790919060201c565b6040516001600160a01b038216907f6ae172837ea30b801fbfcdd4108aa1d5bf8ff775444fd70256b44e6bf3dfc3f690600090a250565b6001600160a01b0382166200015f5760405162461bcd60e51b815260206004820152601f60248201527f45524332303a206d696e7420746f20746865207a65726f20616464726573730060448201526064015b60405180910390fd5b6200017b816002546200028360201b620008811790919060201c565b6002556001600160a01b03821660009081526020818152604090912054620001ae9183906200088162000283821b17901c565b6001600160a01b038316600081815260208181526040808320949094559251848152919290917fddf252ad1be2c89b69c2b068fc378daa952ba7f163c4a11628f55a4df523b3ef910160405180910390a35050565b6200020f8282620002ed565b156200025e5760405162461bcd60e51b815260206004820152601f60248201527f526f6c65733a206163636f756e7420616c72656164792068617320726f6c6500604482015260640162000156565b6001600160a01b0316600090815260209190915260409020805460ff19166001179055565b60008062000292838562000577565b905083811015620002e65760405162461bcd60e51b815260206004820152601b60248201527f536166654d6174683a206164646974696f6e206f766572666c6f770000000000604482015260640162000156565b9392505050565b60006001600160a01b038216620003525760405162461bcd60e51b815260206004820152602260248201527f526f6c65733a206163636f756e7420697320746865207a65726f206164647265604482015261737360f01b606482015260840162000156565b506001600160a01b03166000908152602091909152604090205460ff1690565b82805462000380906200059e565b90600052602060002090601f016020900481019282620003a45760008555620003ef565b82601f10620003bf57805160ff1916838001178555620003ef565b82800160010185558215620003ef579182015b82811115620003ef578251825591602001919060010190620003d2565b50620003fd92915062000401565b5090565b5b80821115620003fd576000815560010162000402565b600082601f8301126200042a57600080fd5b81516001600160401b0380821115620004475762000447620005db565b604051601f8301601f19908116603f01168101908282118183101715620004725762000472620005db565b816040528381526020925086838588010111156200048f57600080fd5b600091505b83821015620004b3578582018301518183018401529082019062000494565b83821115620004c55760008385830101525b9695505050505050565b60008060008060008060c08789031215620004e957600080fd5b86516001600160401b03808211156200050157600080fd5b6200050f8a838b0162000418565b975060208901519150808211156200052657600080fd5b506200053589828a0162000418565b955050604087015193506060870151925060808701516200055681620005f1565b60a08801519092506200056981620005f1565b809150509295509295509295565b600082198211156200059957634e487b7160e01b600052601160045260246000fd5b500190565b600181811c90821680620005b357607f821691505b60208210811415620005d557634e487b7160e01b600052602260045260246000fd5b50919050565b634e487b7160e01b600052604160045260246000fd5b6001600160a01b03811681146200060757600080fd5b50565b6112c0806200061a6000396000f3fe6080604052600436106101355760003560e01c806370a08231116100ab578063a79c4eba1161006f578063a79c4eba14610366578063a9059cbb14610386578063aa271e1a146103a6578063b8bf60f9146103c6578063cd4b6914146103e6578063dd62ed3e1461040657600080fd5b806370a08231146102c657806395d89b41146102fc578063983b2d56146103115780639865027514610331578063a457c2d71461034657600080fd5b8063313ce567116100fd578063313ce5671461020c578063395093511461022157806340c10f191461024157806341c0e1b51461026157806342966c68146102695780635c7da96e1461028b57600080fd5b8063024c2ddd1461013a57806306fdde0314610185578063095ea7b3146101a757806318160ddd146101d757806323b872dd146101ec575b600080fd5b34801561014657600080fd5b50610172610155366004610f59565b600160209081526000928352604080842090915290825290205481565b6040519081526020015b60405180910390f35b34801561019157600080fd5b5061019a61044c565b60405161017c91906110dd565b3480156101b357600080fd5b506101c76101c2366004610fc8565b6104de565b604051901515815260200161017c565b3480156101e357600080fd5b50600254610172565b3480156101f857600080fd5b506101c7610207366004610f8c565b6104f4565b34801561021857600080fd5b50600754610172565b34801561022d57600080fd5b506101c761023c366004610fc8565b610545565b34801561024d57600080fd5b506101c761025c366004610fc8565b61057b565b6101c76105b5565b34801561027557600080fd5b506102896102843660046110c4565b6105df565b005b34801561029757600080fd5b506102ab6102a63660046110c4565b6105ec565b6040805193845260208401929092529082015260600161017c565b3480156102d257600080fd5b506101726102e1366004610f3e565b6001600160a01b031660009081526020819052604090205490565b34801561030857600080fd5b5061019a610623565b34801561031d57600080fd5b5061028961032c366004610f3e565b610632565b34801561033d57600080fd5b50610289610660565b34801561035257600080fd5b506101c7610361366004610fc8565b61066b565b34801561037257600080fd5b506101c7610381366004610ff2565b6106a1565b34801561039257600080fd5b506101c76103a1366004610fc8565b610775565b3480156103b257600080fd5b506101c76103c1366004610f3e565b610782565b3480156103d257600080fd5b506102896103e1366004610f3e565b610795565b3480156103f257600080fd5b506101726104013660046110c4565b6107a6565b34801561041257600080fd5b50610172610421366004610f59565b6001600160a01b03918216600090815260016020908152604080832093909416825291909152205490565b60606005805461045b906111d0565b80601f0160208091040260200160405190810160405280929190818152602001828054610487906111d0565b80156104d45780601f106104a9576101008083540402835291602001916104d4565b820191906000526020600020905b8154815290600101906020018083116104b757829003601f168201915b5050505050905090565b60006104eb3384846108e7565b50600192915050565b6000610501848484610a0c565b6001600160a01b03841660009081526001602090815260408083203380855292529091205461053b9186916105369086610b75565b6108e7565b5060019392505050565b3360008181526001602090815260408083206001600160a01b038716845290915281205490916104eb9185906105369086610881565b600061058633610782565b6105ab5760405162461bcd60e51b81526004016105a290611132565b60405180910390fd5b6104eb8383610bdb565b60006105c033610782565b6105dc5760405162461bcd60e51b81526004016105a290611132565b33ff5b6105e93382610cba565b50565b6000806000806105fb856107a6565b90506000610608866107a6565b90506000610615876107a6565b929791965091945092505050565b60606006805461045b906111d0565b61063b33610782565b6106575760405162461bcd60e51b81526004016105a290611132565b6105e981610d99565b61066933610ddb565b565b3360008181526001602090815260408083206001600160a01b038716845290915281205490916104eb9185906105369086610b75565b60006106ac33610782565b6106c85760405162461bcd60e51b81526004016105a290611132565b8183516106d5919061119a565b3060009081526020819052604090205410156107335760405162461bcd60e51b815260206004820152601f60248201527f496e737566696369656e742062616c616e636520696e20636f6e74726163740060448201526064016105a2565b60005b835181101561053b57610763308583815181106107555761075561125e565b602002602001015185610a0c565b8061076d8161120b565b915050610736565b60006104eb338484610a0c565b600061078f600383610e1d565b92915050565b61079e81610632565b6105e9610660565b600081335a60405160609290921b6bffffffffffffffffffffffff19166020830152603482015244605482015243607482015242609482015260b4016040516020818303038152906040528051906020012060001c61078f9190611226565b61080f8282610e1d565b1561085c5760405162461bcd60e51b815260206004820152601f60248201527f526f6c65733a206163636f756e7420616c72656164792068617320726f6c650060448201526064016105a2565b6001600160a01b0316600090815260209190915260409020805460ff19166001179055565b60008061088e8385611182565b9050838110156108e05760405162461bcd60e51b815260206004820152601b60248201527f536166654d6174683a206164646974696f6e206f766572666c6f77000000000060448201526064016105a2565b9392505050565b6001600160a01b0383166109495760405162461bcd60e51b8152602060048201526024808201527f45524332303a20617070726f76652066726f6d20746865207a65726f206164646044820152637265737360e01b60648201526084016105a2565b6001600160a01b0382166109aa5760405162461bcd60e51b815260206004820152602260248201527f45524332303a20617070726f766520746f20746865207a65726f206164647265604482015261737360f01b60648201526084016105a2565b6001600160a01b0383811660008181526001602090815260408083209487168084529482529182902085905590518481527f8c5be1e5ebec7d5bd14f71427d1e84f3dd0314c0f7b2291e5b200ac8c7c3b92591015b60405180910390a3505050565b6001600160a01b038316610a705760405162461bcd60e51b815260206004820152602560248201527f45524332303a207472616e736665722066726f6d20746865207a65726f206164604482015264647265737360d81b60648201526084016105a2565b6001600160a01b038216610ad25760405162461bcd60e51b815260206004820152602360248201527f45524332303a207472616e7366657220746f20746865207a65726f206164647260448201526265737360e81b60648201526084016105a2565b6001600160a01b038316600090815260208190526040902054610af59082610b75565b6001600160a01b038085166000908152602081905260408082209390935590841681522054610b249082610881565b6001600160a01b038381166000818152602081815260409182902094909455518481529092918616917fddf252ad1be2c89b69c2b068fc378daa952ba7f163c4a11628f55a4df523b3ef91016109ff565b600082821115610bc75760405162461bcd60e51b815260206004820152601e60248201527f536166654d6174683a207375627472616374696f6e206f766572666c6f77000060448201526064016105a2565b6000610bd383856111b9565b949350505050565b6001600160a01b038216610c315760405162461bcd60e51b815260206004820152601f60248201527f45524332303a206d696e7420746f20746865207a65726f20616464726573730060448201526064016105a2565b600254610c3e9082610881565b6002556001600160a01b038216600090815260208190526040902054610c649082610881565b6001600160a01b038316600081815260208181526040808320949094559251848152919290917fddf252ad1be2c89b69c2b068fc378daa952ba7f163c4a11628f55a4df523b3ef91015b60405180910390a35050565b6001600160a01b038216610d1a5760405162461bcd60e51b815260206004820152602160248201527f45524332303a206275726e2066726f6d20746865207a65726f206164647265736044820152607360f81b60648201526084016105a2565b600254610d279082610b75565b6002556001600160a01b038216600090815260208190526040902054610d4d9082610b75565b6001600160a01b03831660008181526020818152604080832094909455925184815290927fddf252ad1be2c89b69c2b068fc378daa952ba7f163c4a11628f55a4df523b3ef9101610cae565b610da4600382610805565b6040516001600160a01b038216907f6ae172837ea30b801fbfcdd4108aa1d5bf8ff775444fd70256b44e6bf3dfc3f690600090a250565b610de6600382610ea0565b6040516001600160a01b038216907fe94479a9f7e1952cc78f2d6baab678adc1b772d936c6583def489e524cb6669290600090a250565b60006001600160a01b038216610e805760405162461bcd60e51b815260206004820152602260248201527f526f6c65733a206163636f756e7420697320746865207a65726f206164647265604482015261737360f01b60648201526084016105a2565b506001600160a01b03166000908152602091909152604090205460ff1690565b610eaa8282610e1d565b610f005760405162461bcd60e51b815260206004820152602160248201527f526f6c65733a206163636f756e7420646f6573206e6f74206861766520726f6c6044820152606560f81b60648201526084016105a2565b6001600160a01b0316600090815260209190915260409020805460ff19169055565b80356001600160a01b0381168114610f3957600080fd5b919050565b600060208284031215610f5057600080fd5b6108e082610f22565b60008060408385031215610f6c57600080fd5b610f7583610f22565b9150610f8360208401610f22565b90509250929050565b600080600060608486031215610fa157600080fd5b610faa84610f22565b9250610fb860208501610f22565b9150604084013590509250925092565b60008060408385031215610fdb57600080fd5b610fe483610f22565b946020939093013593505050565b6000806040838503121561100557600080fd5b823567ffffffffffffffff8082111561101d57600080fd5b818501915085601f83011261103157600080fd5b813560208282111561104557611045611274565b8160051b604051601f19603f8301168101818110868211171561106a5761106a611274565b604052838152828101945085830182870184018b101561108957600080fd5b600096505b848710156110b35761109f81610f22565b86526001969096019594830194830161108e565b509997909101359750505050505050565b6000602082840312156110d657600080fd5b5035919050565b600060208083528351808285015260005b8181101561110a578581018301518582016040015282016110ee565b8181111561111c576000604083870101525b50601f01601f1916929092016040019392505050565b60208082526030908201527f4d696e746572526f6c653a2063616c6c657220646f6573206e6f74206861766560408201526f20746865204d696e74657220726f6c6560801b606082015260800190565b6000821982111561119557611195611248565b500190565b60008160001904831182151516156111b4576111b4611248565b500290565b6000828210156111cb576111cb611248565b500390565b600181811c908216806111e457607f821691505b6020821081141561120557634e487b7160e01b600052602260045260246000fd5b50919050565b600060001982141561121f5761121f611248565b5060010190565b60008261124357634e487b7160e01b600052601260045260246000fd5b500690565b634e487b7160e01b600052601160045260246000fd5b634e487b7160e01b600052603260045260246000fd5b634e487b7160e01b600052604160045260246000fdfea264697066735822122068bdd49f1de85e4097fd8168f42ad3a53a9b499abc198ba46750db9c95a2d32d64736f6c63430008070033",
    "sourcePath": "d:/Projects/outside/crypto/Vegas_Coin-with-Smart-_Contract/contracts/TokenMintERC20MintableToken.sol",
    "compiler": {
        "name": "solc",
        "version": "0.8.7+commit.e28d00a7"
    },
    "functionHashes": {
        "_allowances(address,address)": "024c2ddd",
        "addMinter(address)": "983b2d56",
        "allowance(address,address)": "dd62ed3e",
        "approve(address,uint256)": "095ea7b3",
        "balanceOf(address)": "70a08231",
        "burn(uint256)": "42966c68",
        "decimals()": "313ce567",
        "decreaseAllowance(address,uint256)": "a457c2d7",
        "getAirdrop(address[],uint256)": "a79c4eba",
        "getRandom(uint256)": "cd4b6914",
        "increaseAllowance(address,uint256)": "39509351",
        "isMinter(address)": "aa271e1a",
        "kill()": "41c0e1b5",
        "mint(address,uint256)": "40c10f19",
        "name()": "06fdde03",
        "renounceMinter()": "98650275",
        "spinSlotMachine(uint256)": "5c7da96e",
        "symbol()": "95d89b41",
        "totalSupply()": "18160ddd",
        "transfer(address,uint256)": "a9059cbb",
        "transferFrom(address,address,uint256)": "23b872dd",
        "transferMinterRole(address)": "b8bf60f9"
    },
    "gasEstimates": {
        "creation": {
            "codeDepositCost": "960000",
            "executionCost": "infinite",
            "totalCost": "infinite"
        },
        "external": {
            "_allowances(address,address)": "infinite",
            "addMinter(address)": "infinite",
            "allowance(address,address)": "infinite",
            "approve(address,uint256)": "24665",
            "balanceOf(address)": "2552",
            "burn(uint256)": "infinite",
            "decimals()": "2304",
            "decreaseAllowance(address,uint256)": "27116",
            "getAirdrop(address[],uint256)": "infinite",
            "getRandom(uint256)": "694",
            "increaseAllowance(address,uint256)": "27056",
            "isMinter(address)": "2716",
            "kill()": "30130",
            "mint(address,uint256)": "infinite",
            "name()": "infinite",
            "renounceMinter()": "28052",
            "spinSlotMachine(uint256)": "infinite",
            "symbol()": "infinite",
            "totalSupply()": "2371",
            "transfer(address,uint256)": "51442",
            "transferFrom(address,address,uint256)": "infinite",
            "transferMinterRole(address)": "infinite"
        }
    }
}