{
  "contractName": "ERC20Mintable",
  "abi": [
    {
      "anonymous": false,
      "inputs": [
        {
          "indexed": true,
          "internalType": "address",
          "name": "owner",
          "type": "address"
        },
        {
          "indexed": true,
          "internalType": "address",
          "name": "spender",
          "type": "address"
        },
        {
          "indexed": false,
          "internalType": "uint256",
          "name": "value",
          "type": "uint256"
        }
      ],
      "name": "Approval",
      "type": "event"
    },
    {
      "anonymous": false,
      "inputs": [
        {
          "indexed": true,
          "internalType": "address",
          "name": "account",
          "type": "address"
        }
      ],
      "name": "MinterAdded",
      "type": "event"
    },
    {
      "anonymous": false,
      "inputs": [
        {
          "indexed": true,
          "internalType": "address",
          "name": "account",
          "type": "address"
        }
      ],
      "name": "MinterRemoved",
      "type": "event"
    },
    {
      "anonymous": false,
      "inputs": [
        {
          "indexed": true,
          "internalType": "address",
          "name": "from",
          "type": "address"
        },
        {
          "indexed": true,
          "internalType": "address",
          "name": "to",
          "type": "address"
        },
        {
          "indexed": false,
          "internalType": "uint256",
          "name": "value",
          "type": "uint256"
        }
      ],
      "name": "Transfer",
      "type": "event"
    },
    {
      "inputs": [
        {
          "internalType": "address",
          "name": "",
          "type": "address"
        },
        {
          "internalType": "address",
          "name": "",
          "type": "address"
        }
      ],
      "name": "_allowances",
      "outputs": [
        {
          "internalType": "uint256",
          "name": "",
          "type": "uint256"
        }
      ],
      "stateMutability": "view",
      "type": "function"
    },
    {
      "inputs": [
        {
          "internalType": "address",
          "name": "account",
          "type": "address"
        }
      ],
      "name": "addMinter",
      "outputs": [],
      "stateMutability": "nonpayable",
      "type": "function"
    },
    {
      "inputs": [
        {
          "internalType": "address",
          "name": "owner",
          "type": "address"
        },
        {
          "internalType": "address",
          "name": "spender",
          "type": "address"
        }
      ],
      "name": "allowance",
      "outputs": [
        {
          "internalType": "uint256",
          "name": "",
          "type": "uint256"
        }
      ],
      "stateMutability": "view",
      "type": "function"
    },
    {
      "inputs": [
        {
          "internalType": "address",
          "name": "spender",
          "type": "address"
        },
        {
          "internalType": "uint256",
          "name": "value",
          "type": "uint256"
        }
      ],
      "name": "approve",
      "outputs": [
        {
          "internalType": "bool",
          "name": "",
          "type": "bool"
        }
      ],
      "stateMutability": "nonpayable",
      "type": "function"
    },
    {
      "inputs": [
        {
          "internalType": "address",
          "name": "account",
          "type": "address"
        }
      ],
      "name": "balanceOf",
      "outputs": [
        {
          "internalType": "uint256",
          "name": "",
          "type": "uint256"
        }
      ],
      "stateMutability": "view",
      "type": "function"
    },
    {
      "inputs": [
        {
          "internalType": "address",
          "name": "spender",
          "type": "address"
        },
        {
          "internalType": "uint256",
          "name": "subtractedValue",
          "type": "uint256"
        }
      ],
      "name": "decreaseAllowance",
      "outputs": [
        {
          "internalType": "bool",
          "name": "",
          "type": "bool"
        }
      ],
      "stateMutability": "nonpayable",
      "type": "function"
    },
    {
      "inputs": [
        {
          "internalType": "address",
          "name": "spender",
          "type": "address"
        },
        {
          "internalType": "uint256",
          "name": "addedValue",
          "type": "uint256"
        }
      ],
      "name": "increaseAllowance",
      "outputs": [
        {
          "internalType": "bool",
          "name": "",
          "type": "bool"
        }
      ],
      "stateMutability": "nonpayable",
      "type": "function"
    },
    {
      "inputs": [
        {
          "internalType": "address",
          "name": "account",
          "type": "address"
        }
      ],
      "name": "isMinter",
      "outputs": [
        {
          "internalType": "bool",
          "name": "",
          "type": "bool"
        }
      ],
      "stateMutability": "view",
      "type": "function"
    },
    {
      "inputs": [],
      "name": "renounceMinter",
      "outputs": [],
      "stateMutability": "nonpayable",
      "type": "function"
    },
    {
      "inputs": [],
      "name": "totalSupply",
      "outputs": [
        {
          "internalType": "uint256",
          "name": "",
          "type": "uint256"
        }
      ],
      "stateMutability": "view",
      "type": "function"
    },
    {
      "inputs": [
        {
          "internalType": "address",
          "name": "recipient",
          "type": "address"
        },
        {
          "internalType": "uint256",
          "name": "amount",
          "type": "uint256"
        }
      ],
      "name": "transfer",
      "outputs": [
        {
          "internalType": "bool",
          "name": "",
          "type": "bool"
        }
      ],
      "stateMutability": "nonpayable",
      "type": "function"
    },
    {
      "inputs": [
        {
          "internalType": "address",
          "name": "sender",
          "type": "address"
        },
        {
          "internalType": "address",
          "name": "recipient",
          "type": "address"
        },
        {
          "internalType": "uint256",
          "name": "amount",
          "type": "uint256"
        }
      ],
      "name": "transferFrom",
      "outputs": [
        {
          "internalType": "bool",
          "name": "",
          "type": "bool"
        }
      ],
      "stateMutability": "nonpayable",
      "type": "function"
    },
    {
      "inputs": [
        {
          "internalType": "address",
          "name": "account",
          "type": "address"
        },
        {
          "internalType": "uint256",
          "name": "amount",
          "type": "uint256"
        }
      ],
      "name": "mint",
      "outputs": [
        {
          "internalType": "bool",
          "name": "",
          "type": "bool"
        }
      ],
      "stateMutability": "nonpayable",
      "type": "function"
    },
    {
      "inputs": [
        {
          "internalType": "address[]",
          "name": "recipients",
          "type": "address[]"
        },
        {
          "internalType": "uint256",
          "name": "amount",
          "type": "uint256"
        }
      ],
      "name": "getAirdrop",
      "outputs": [
        {
          "internalType": "bool",
          "name": "",
          "type": "bool"
        }
      ],
      "stateMutability": "nonpayable",
      "type": "function"
    },
    {
      "inputs": [],
      "name": "kill",
      "outputs": [
        {
          "internalType": "bool",
          "name": "",
          "type": "bool"
        }
      ],
      "stateMutability": "payable",
      "type": "function"
    }
  ],
  "bytecode": "0x60806040523480156200001157600080fd5b5062000023336200002960201b60201c565b62000323565b620000448160036200008a60201b620009691790919060201c565b8073ffffffffffffffffffffffffffffffffffffffff167f6ae172837ea30b801fbfcdd4108aa1d5bf8ff775444fd70256b44e6bf3dfc3f660405160405180910390a250565b6200009c82826200013d60201b60201c565b15620000df576040517f08c379a0000000000000000000000000000000000000000000000000000000008152600401620000d69062000256565b60405180910390fd5b60018260000160008373ffffffffffffffffffffffffffffffffffffffff1673ffffffffffffffffffffffffffffffffffffffff16815260200190815260200160002060006101000a81548160ff0219169083151502179055505050565b60008073ffffffffffffffffffffffffffffffffffffffff168273ffffffffffffffffffffffffffffffffffffffff161415620001b1576040517f08c379a0000000000000000000000000000000000000000000000000000000008152600401620001a89062000278565b60405180910390fd5b8260000160008373ffffffffffffffffffffffffffffffffffffffff1673ffffffffffffffffffffffffffffffffffffffff16815260200190815260200160002060009054906101000a900460ff16905092915050565b600062000217601f836200029a565b91506200022482620002ab565b602082019050919050565b60006200023e6022836200029a565b91506200024b82620002d4565b604082019050919050565b60006020820190508181036000830152620002718162000208565b9050919050565b6000602082019050818103600083015262000293816200022f565b9050919050565b600082825260208201905092915050565b7f526f6c65733a206163636f756e7420616c72656164792068617320726f6c6500600082015250565b7f526f6c65733a206163636f756e7420697320746865207a65726f20616464726560008201527f7373000000000000000000000000000000000000000000000000000000000000602082015250565b611e6480620003336000396000f3fe6080604052600436106100e85760003560e01c806370a082311161008a578063a79c4eba11610059578063a79c4eba14610321578063a9059cbb1461035e578063aa271e1a1461039b578063dd62ed3e146103d8576100e8565b806370a0823114610267578063983b2d56146102a457806398650275146102cd578063a457c2d7146102e4576100e8565b806323b872dd116100c657806323b872dd1461019257806339509351146101cf57806340c10f191461020c57806341c0e1b514610249576100e8565b8063024c2ddd146100ed578063095ea7b31461012a57806318160ddd14610167575b600080fd5b3480156100f957600080fd5b50610114600480360381019061010f91906113a9565b610415565b6040516101219190611835565b60405180910390f35b34801561013657600080fd5b50610151600480360381019061014c919061143c565b61043a565b60405161015e919061169a565b60405180910390f35b34801561017357600080fd5b5061017c610451565b6040516101899190611835565b60405180910390f35b34801561019e57600080fd5b506101b960048036038101906101b491906113e9565b61045b565b6040516101c6919061169a565b60405180910390f35b3480156101db57600080fd5b506101f660048036038101906101f1919061143c565b61050c565b604051610203919061169a565b60405180910390f35b34801561021857600080fd5b50610233600480360381019061022e919061143c565b6105b1565b604051610240919061169a565b60405180910390f35b61025161060f565b60405161025e919061169a565b60405180910390f35b34801561027357600080fd5b5061028e6004803603810190610289919061137c565b610672565b60405161029b9190611835565b60405180910390f35b3480156102b057600080fd5b506102cb60048036038101906102c6919061137c565b6106ba565b005b3480156102d957600080fd5b506102e261070e565b005b3480156102f057600080fd5b5061030b6004803603810190610306919061143c565b610719565b604051610318919061169a565b60405180910390f35b34801561032d57600080fd5b506103486004803603810190610343919061147c565b6107be565b604051610355919061169a565b60405180910390f35b34801561036a57600080fd5b506103856004803603810190610380919061143c565b6108ae565b604051610392919061169a565b60405180910390f35b3480156103a757600080fd5b506103c260048036038101906103bd919061137c565b6108c5565b6040516103cf919061169a565b60405180910390f35b3480156103e457600080fd5b506103ff60048036038101906103fa91906113a9565b6108e2565b60405161040c9190611835565b60405180910390f35b6001602052816000526040600020602052806000526040600020600091509150505481565b6000610447338484610a11565b6001905092915050565b6000600254905090565b6000610468848484610bdc565b61050184336104fc85600160008a73ffffffffffffffffffffffffffffffffffffffff1673ffffffffffffffffffffffffffffffffffffffff16815260200190815260200160002060003373ffffffffffffffffffffffffffffffffffffffff1673ffffffffffffffffffffffffffffffffffffffff16815260200190815260200160002054610e4c90919063ffffffff16565b610a11565b600190509392505050565b60006105a733846105a285600160003373ffffffffffffffffffffffffffffffffffffffff1673ffffffffffffffffffffffffffffffffffffffff16815260200190815260200160002060008973ffffffffffffffffffffffffffffffffffffffff1673ffffffffffffffffffffffffffffffffffffffff16815260200190815260200160002054610eab90919063ffffffff16565b610a11565b6001905092915050565b60006105bc336108c5565b6105fb576040517f08c379a00000000000000000000000000000000000000000000000000000000081526004016105f290611755565b60405180910390fd5b6106058383610f09565b6001905092915050565b600061061a336108c5565b610659576040517f08c379a000000000000000000000000000000000000000000000000000000000815260040161065090611755565b60405180910390fd5b3373ffffffffffffffffffffffffffffffffffffffff16ff5b60008060008373ffffffffffffffffffffffffffffffffffffffff1673ffffffffffffffffffffffffffffffffffffffff168152602001908152602001600020549050919050565b6106c3336108c5565b610702576040517f08c379a00000000000000000000000000000000000000000000000000000000081526004016106f990611755565b60405180910390fd5b61070b81611091565b50565b610717336110eb565b565b60006107b433846107af85600160003373ffffffffffffffffffffffffffffffffffffffff1673ffffffffffffffffffffffffffffffffffffffff16815260200190815260200160002060008973ffffffffffffffffffffffffffffffffffffffff1673ffffffffffffffffffffffffffffffffffffffff16815260200190815260200160002054610e4c90919063ffffffff16565b610a11565b6001905092915050565b60006107c9336108c5565b610808576040517f08c379a00000000000000000000000000000000000000000000000000000000081526004016107ff90611755565b60405180910390fd5b8183516108159190611908565b61081e30610672565b101561085f576040517f08c379a0000000000000000000000000000000000000000000000000000000008152600401610856906117d5565b60405180910390fd5b60005b83518110156108a3576108903085838151811061088257610881611a87565b5b602002602001015185610bdc565b808061089b90611a0f565b915050610862565b506001905092915050565b60006108bb338484610bdc565b6001905092915050565b60006108db82600361114590919063ffffffff16565b9050919050565b6000600160008473ffffffffffffffffffffffffffffffffffffffff1673ffffffffffffffffffffffffffffffffffffffff16815260200190815260200160002060008373ffffffffffffffffffffffffffffffffffffffff1673ffffffffffffffffffffffffffffffffffffffff16815260200190815260200160002054905092915050565b6109738282611145565b156109b3576040517f08c379a00000000000000000000000000000000000000000000000000000000081526004016109aa906116d5565b60405180910390fd5b60018260000160008373ffffffffffffffffffffffffffffffffffffffff1673ffffffffffffffffffffffffffffffffffffffff16815260200190815260200160002060006101000a81548160ff0219169083151502179055505050565b600073ffffffffffffffffffffffffffffffffffffffff168373ffffffffffffffffffffffffffffffffffffffff161415610a81576040517f08c379a0000000000000000000000000000000000000000000000000000000008152600401610a78906117f5565b60405180910390fd5b600073ffffffffffffffffffffffffffffffffffffffff168273ffffffffffffffffffffffffffffffffffffffff161415610af1576040517f08c379a0000000000000000000000000000000000000000000000000000000008152600401610ae8906116f5565b60405180910390fd5b80600160008573ffffffffffffffffffffffffffffffffffffffff1673ffffffffffffffffffffffffffffffffffffffff16815260200190815260200160002060008473ffffffffffffffffffffffffffffffffffffffff1673ffffffffffffffffffffffffffffffffffffffff168152602001908152602001600020819055508173ffffffffffffffffffffffffffffffffffffffff168373ffffffffffffffffffffffffffffffffffffffff167f8c5be1e5ebec7d5bd14f71427d1e84f3dd0314c0f7b2291e5b200ac8c7c3b92583604051610bcf9190611835565b60405180910390a3505050565b600073ffffffffffffffffffffffffffffffffffffffff168373ffffffffffffffffffffffffffffffffffffffff161415610c4c576040517f08c379a0000000000000000000000000000000000000000000000000000000008152600401610c43906117b5565b60405180910390fd5b600073ffffffffffffffffffffffffffffffffffffffff168273ffffffffffffffffffffffffffffffffffffffff161415610cbc576040517f08c379a0000000000000000000000000000000000000000000000000000000008152600401610cb3906116b5565b60405180910390fd5b610d0d816000808673ffffffffffffffffffffffffffffffffffffffff1673ffffffffffffffffffffffffffffffffffffffff16815260200190815260200160002054610e4c90919063ffffffff16565b6000808573ffffffffffffffffffffffffffffffffffffffff1673ffffffffffffffffffffffffffffffffffffffff16815260200190815260200160002081905550610da0816000808573ffffffffffffffffffffffffffffffffffffffff1673ffffffffffffffffffffffffffffffffffffffff16815260200190815260200160002054610eab90919063ffffffff16565b6000808473ffffffffffffffffffffffffffffffffffffffff1673ffffffffffffffffffffffffffffffffffffffff168152602001908152602001600020819055508173ffffffffffffffffffffffffffffffffffffffff168373ffffffffffffffffffffffffffffffffffffffff167fddf252ad1be2c89b69c2b068fc378daa952ba7f163c4a11628f55a4df523b3ef83604051610e3f9190611835565b60405180910390a3505050565b600082821115610e91576040517f08c379a0000000000000000000000000000000000000000000000000000000008152600401610e8890611735565b60405180910390fd5b60008284610e9f9190611962565b90508091505092915050565b6000808284610eba91906118b2565b905083811015610eff576040517f08c379a0000000000000000000000000000000000000000000000000000000008152600401610ef690611715565b60405180910390fd5b8091505092915050565b600073ffffffffffffffffffffffffffffffffffffffff168273ffffffffffffffffffffffffffffffffffffffff161415610f79576040517f08c379a0000000000000000000000000000000000000000000000000000000008152600401610f7090611815565b60405180910390fd5b610f8e81600254610eab90919063ffffffff16565b600281905550610fe5816000808573ffffffffffffffffffffffffffffffffffffffff1673ffffffffffffffffffffffffffffffffffffffff16815260200190815260200160002054610eab90919063ffffffff16565b6000808473ffffffffffffffffffffffffffffffffffffffff1673ffffffffffffffffffffffffffffffffffffffff168152602001908152602001600020819055508173ffffffffffffffffffffffffffffffffffffffff16600073ffffffffffffffffffffffffffffffffffffffff167fddf252ad1be2c89b69c2b068fc378daa952ba7f163c4a11628f55a4df523b3ef836040516110859190611835565b60405180910390a35050565b6110a581600361096990919063ffffffff16565b8073ffffffffffffffffffffffffffffffffffffffff167f6ae172837ea30b801fbfcdd4108aa1d5bf8ff775444fd70256b44e6bf3dfc3f660405160405180910390a250565b6110ff81600361120d90919063ffffffff16565b8073ffffffffffffffffffffffffffffffffffffffff167fe94479a9f7e1952cc78f2d6baab678adc1b772d936c6583def489e524cb6669260405160405180910390a250565b60008073ffffffffffffffffffffffffffffffffffffffff168273ffffffffffffffffffffffffffffffffffffffff1614156111b6576040517f08c379a00000000000000000000000000000000000000000000000000000000081526004016111ad90611795565b60405180910390fd5b8260000160008373ffffffffffffffffffffffffffffffffffffffff1673ffffffffffffffffffffffffffffffffffffffff16815260200190815260200160002060009054906101000a900460ff16905092915050565b6112178282611145565b611256576040517f08c379a000000000000000000000000000000000000000000000000000000000815260040161124d90611775565b60405180910390fd5b60008260000160008373ffffffffffffffffffffffffffffffffffffffff1673ffffffffffffffffffffffffffffffffffffffff16815260200190815260200160002060006101000a81548160ff0219169083151502179055505050565b60006112c76112c284611875565b611850565b905080838252602082019050828560208602820111156112ea576112e9611aea565b5b60005b8581101561131a57816113008882611324565b8452602084019350602083019250506001810190506112ed565b5050509392505050565b60008135905061133381611e00565b92915050565b600082601f83011261134e5761134d611ae5565b5b813561135e8482602086016112b4565b91505092915050565b60008135905061137681611e17565b92915050565b60006020828403121561139257611391611af4565b5b60006113a084828501611324565b91505092915050565b600080604083850312156113c0576113bf611af4565b5b60006113ce85828601611324565b92505060206113df85828601611324565b9150509250929050565b60008060006060848603121561140257611401611af4565b5b600061141086828701611324565b935050602061142186828701611324565b925050604061143286828701611367565b9150509250925092565b6000806040838503121561145357611452611af4565b5b600061146185828601611324565b925050602061147285828601611367565b9150509250929050565b6000806040838503121561149357611492611af4565b5b600083013567ffffffffffffffff8111156114b1576114b0611aef565b5b6114bd85828601611339565b92505060206114ce85828601611367565b9150509250929050565b6114e1816119a8565b82525050565b60006114f46023836118a1565b91506114ff82611b0a565b604082019050919050565b6000611517601f836118a1565b915061152282611b59565b602082019050919050565b600061153a6022836118a1565b915061154582611b82565b604082019050919050565b600061155d601b836118a1565b915061156882611bd1565b602082019050919050565b6000611580601e836118a1565b915061158b82611bfa565b602082019050919050565b60006115a36030836118a1565b91506115ae82611c23565b604082019050919050565b60006115c66021836118a1565b91506115d182611c72565b604082019050919050565b60006115e96022836118a1565b91506115f482611cc1565b604082019050919050565b600061160c6025836118a1565b915061161782611d10565b604082019050919050565b600061162f601f836118a1565b915061163a82611d5f565b602082019050919050565b60006116526024836118a1565b915061165d82611d88565b604082019050919050565b6000611675601f836118a1565b915061168082611dd7565b602082019050919050565b611694816119d4565b82525050565b60006020820190506116af60008301846114d8565b92915050565b600060208201905081810360008301526116ce816114e7565b9050919050565b600060208201905081810360008301526116ee8161150a565b9050919050565b6000602082019050818103600083015261170e8161152d565b9050919050565b6000602082019050818103600083015261172e81611550565b9050919050565b6000602082019050818103600083015261174e81611573565b9050919050565b6000602082019050818103600083015261176e81611596565b9050919050565b6000602082019050818103600083015261178e816115b9565b9050919050565b600060208201905081810360008301526117ae816115dc565b9050919050565b600060208201905081810360008301526117ce816115ff565b9050919050565b600060208201905081810360008301526117ee81611622565b9050919050565b6000602082019050818103600083015261180e81611645565b9050919050565b6000602082019050818103600083015261182e81611668565b9050919050565b600060208201905061184a600083018461168b565b92915050565b600061185a61186b565b905061186682826119de565b919050565b6000604051905090565b600067ffffffffffffffff8211156118905761188f611ab6565b5b602082029050602081019050919050565b600082825260208201905092915050565b60006118bd826119d4565b91506118c8836119d4565b9250827fffffffffffffffffffffffffffffffffffffffffffffffffffffffffffffffff038211156118fd576118fc611a58565b5b828201905092915050565b6000611913826119d4565b915061191e836119d4565b9250817fffffffffffffffffffffffffffffffffffffffffffffffffffffffffffffffff048311821515161561195757611956611a58565b5b828202905092915050565b600061196d826119d4565b9150611978836119d4565b92508282101561198b5761198a611a58565b5b828203905092915050565b60006119a1826119b4565b9050919050565b60008115159050919050565b600073ffffffffffffffffffffffffffffffffffffffff82169050919050565b6000819050919050565b6119e782611af9565b810181811067ffffffffffffffff82111715611a0657611a05611ab6565b5b80604052505050565b6000611a1a826119d4565b91507fffffffffffffffffffffffffffffffffffffffffffffffffffffffffffffffff821415611a4d57611a4c611a58565b5b600182019050919050565b7f4e487b7100000000000000000000000000000000000000000000000000000000600052601160045260246000fd5b7f4e487b7100000000000000000000000000000000000000000000000000000000600052603260045260246000fd5b7f4e487b7100000000000000000000000000000000000000000000000000000000600052604160045260246000fd5b600080fd5b600080fd5b600080fd5b600080fd5b6000601f19601f8301169050919050565b7f45524332303a207472616e7366657220746f20746865207a65726f206164647260008201527f6573730000000000000000000000000000000000000000000000000000000000602082015250565b7f526f6c65733a206163636f756e7420616c72656164792068617320726f6c6500600082015250565b7f45524332303a20617070726f766520746f20746865207a65726f20616464726560008201527f7373000000000000000000000000000000000000000000000000000000000000602082015250565b7f536166654d6174683a206164646974696f6e206f766572666c6f770000000000600082015250565b7f536166654d6174683a207375627472616374696f6e206f766572666c6f770000600082015250565b7f4d696e746572526f6c653a2063616c6c657220646f6573206e6f74206861766560008201527f20746865204d696e74657220726f6c6500000000000000000000000000000000602082015250565b7f526f6c65733a206163636f756e7420646f6573206e6f74206861766520726f6c60008201527f6500000000000000000000000000000000000000000000000000000000000000602082015250565b7f526f6c65733a206163636f756e7420697320746865207a65726f20616464726560008201527f7373000000000000000000000000000000000000000000000000000000000000602082015250565b7f45524332303a207472616e736665722066726f6d20746865207a65726f20616460008201527f6472657373000000000000000000000000000000000000000000000000000000602082015250565b7f496e737566696369656e742062616c616e636520696e20636f6e747261637400600082015250565b7f45524332303a20617070726f76652066726f6d20746865207a65726f2061646460008201527f7265737300000000000000000000000000000000000000000000000000000000602082015250565b7f45524332303a206d696e7420746f20746865207a65726f206164647265737300600082015250565b611e0981611996565b8114611e1457600080fd5b50565b611e20816119d4565b8114611e2b57600080fd5b5056fea2646970667358221220954de28d7e41aa60c2ea5d8d5a6cefd7003cd6fac55f55c7ac8d82547f82eb3464736f6c63430008070033",
  "immutableReferences": {},
  "source": "/**\r\n *Submitted for verification at Etherscan.io on 2021-01-12\r\n */\r\n\r\n// File: contracts\\open-zeppelin-contracts\\token\\ERC20\\IERC20.sol\r\n\r\npragma solidity ^0.8.7;\r\n\r\n// import \"@openzeppelin/contracts-upgradeable/proxy/utils/Initializable.sol\";\r\n\r\n/**\r\n * @dev Interface of the ERC20 standard as defined in the EIP. Does not include\r\n * the optional functions; to access them see `ERC20Detailed`.\r\n */\r\ninterface IERC20 {\r\n    /**\r\n     * @dev Returns the amount of tokens in existence.\r\n     */\r\n    function totalSupply() external view returns (uint256);\r\n\r\n    /**\r\n     * @dev Returns the amount of tokens owned by `account`.\r\n     */\r\n    function balanceOf(address account) external view returns (uint256);\r\n\r\n    /**\r\n     * @dev Moves `amount` tokens from the caller's account to `recipient`.\r\n     *\r\n     * Returns a boolean value indicating whether the operation succeeded.\r\n     *\r\n     * Emits a `Transfer` event.\r\n     */\r\n    function transfer(address recipient, uint256 amount)\r\n        external\r\n        returns (bool);\r\n\r\n    /**\r\n     * @dev Returns the remaining number of tokens that `spender` will be\r\n     * allowed to spend on behalf of `owner` through `transferFrom`. This is\r\n     * zero by default.\r\n     *\r\n     * This value changes when `approve` or `transferFrom` are called.\r\n     */\r\n    function allowance(address owner, address spender)\r\n        external\r\n        view\r\n        returns (uint256);\r\n\r\n    /**\r\n     * @dev Sets `amount` as the allowance of `spender` over the caller's tokens.\r\n     *\r\n     * Returns a boolean value indicating whether the operation succeeded.\r\n     *\r\n     * > Beware that changing an allowance with this method brings the risk\r\n     * that someone may use both the old and the new allowance by unfortunate\r\n     * transaction ordering. One possible solution to mitigate this race\r\n     * condition is to first reduce the spender's allowance to 0 and set the\r\n     * desired value afterwards:\r\n     * https://github.com/ethereum/EIPs/issues/20#issuecomment-263524729\r\n     *\r\n     * Emits an `Approval` event.\r\n     */\r\n    function approve(address spender, uint256 amount) external returns (bool);\r\n\r\n    /**\r\n     * @dev Moves `amount` tokens from `sender` to `recipient` using the\r\n     * allowance mechanism. `amount` is then deducted from the caller's\r\n     * allowance.\r\n     *\r\n     * Returns a boolean value indicating whether the operation succeeded.\r\n     *\r\n     * Emits a `Transfer` event.\r\n     */\r\n    function transferFrom(\r\n        address sender,\r\n        address recipient,\r\n        uint256 amount\r\n    ) external returns (bool);\r\n\r\n    /**\r\n     * @dev Emitted when `value` tokens are moved from one account (`from`) to\r\n     * another (`to`).\r\n     *\r\n     * Note that `value` may be zero.\r\n     */\r\n    event Transfer(address indexed from, address indexed to, uint256 value);\r\n\r\n    /**\r\n     * @dev Emitted when the allowance of a `spender` for an `owner` is set by\r\n     * a call to `approve`. `value` is the new allowance.\r\n     */\r\n    event Approval(\r\n        address indexed owner,\r\n        address indexed spender,\r\n        uint256 value\r\n    );\r\n}\r\n\r\n// File: contracts\\open-zeppelin-contracts\\math\\SafeMath.sol\r\n\r\npragma solidity ^0.8.7;\r\n\r\n/**\r\n * @dev Wrappers over Solidity's arithmetic operations with added overflow\r\n * checks.\r\n *\r\n * Arithmetic operations in Solidity wrap on overflow. This can easily result\r\n * in bugs, because programmers usually assume that an overflow raises an\r\n * error, which is the standard behavior in high level programming languages.\r\n * `SafeMath` restores this intuition by reverting the transaction when an\r\n * operation overflows.\r\n *\r\n * Using this library instead of the unchecked operations eliminates an entire\r\n * class of bugs, so it's recommended to use it always.\r\n */\r\nlibrary SafeMath {\r\n    /**\r\n     * @dev Returns the addition of two unsigned integers, reverting on\r\n     * overflow.\r\n     *\r\n     * Counterpart to Solidity's `+` operator.\r\n     *\r\n     * Requirements:\r\n     * - Addition cannot overflow.\r\n     */\r\n    function add(uint256 a, uint256 b) internal pure returns (uint256) {\r\n        uint256 c = a + b;\r\n        require(c >= a, \"SafeMath: addition overflow\");\r\n\r\n        return c;\r\n    }\r\n\r\n    /**\r\n     * @dev Returns the subtraction of two unsigned integers, reverting on\r\n     * overflow (when the result is negative).\r\n     *\r\n     * Counterpart to Solidity's `-` operator.\r\n     *\r\n     * Requirements:\r\n     * - Subtraction cannot overflow.\r\n     */\r\n    function sub(uint256 a, uint256 b) internal pure returns (uint256) {\r\n        require(b <= a, \"SafeMath: subtraction overflow\");\r\n        uint256 c = a - b;\r\n\r\n        return c;\r\n    }\r\n\r\n    /**\r\n     * @dev Returns the multiplication of two unsigned integers, reverting on\r\n     * overflow.\r\n     *\r\n     * Counterpart to Solidity's `*` operator.\r\n     *\r\n     * Requirements:\r\n     * - Multiplication cannot overflow.\r\n     */\r\n    function mul(uint256 a, uint256 b) internal pure returns (uint256) {\r\n        // Gas optimization: this is cheaper than requiring 'a' not being zero, but the\r\n        // benefit is lost if 'b' is also tested.\r\n        // See: https://github.com/OpenZeppelin/openzeppelin-solidity/pull/522\r\n        if (a == 0) {\r\n            return 0;\r\n        }\r\n\r\n        uint256 c = a * b;\r\n        require(c / a == b, \"SafeMath: multiplication overflow\");\r\n\r\n        return c;\r\n    }\r\n\r\n    /**\r\n     * @dev Returns the integer division of two unsigned integers. Reverts on\r\n     * division by zero. The result is rounded towards zero.\r\n     *\r\n     * Counterpart to Solidity's `/` operator. Note: this function uses a\r\n     * `revert` opcode (which leaves remaining gas untouched) while Solidity\r\n     * uses an invalid opcode to revert (consuming all remaining gas).\r\n     *\r\n     * Requirements:\r\n     * - The divisor cannot be zero.\r\n     */\r\n    function div(uint256 a, uint256 b) internal pure returns (uint256) {\r\n        // Solidity only automatically asserts when dividing by 0\r\n        require(b > 0, \"SafeMath: division by zero\");\r\n        uint256 c = a / b;\r\n        // assert(a == b * c + a % b); // There is no case in which this doesn't hold\r\n\r\n        return c;\r\n    }\r\n\r\n    /**\r\n     * @dev Returns the remainder of dividing two unsigned integers. (unsigned integer modulo),\r\n     * Reverts when dividing by zero.\r\n     *\r\n     * Counterpart to Solidity's `%` operator. This function uses a `revert`\r\n     * opcode (which leaves remaining gas untouched) while Solidity uses an\r\n     * invalid opcode to revert (consuming all remaining gas).\r\n     *\r\n     * Requirements:\r\n     * - The divisor cannot be zero.\r\n     */\r\n    function mod(uint256 a, uint256 b) internal pure returns (uint256) {\r\n        require(b != 0, \"SafeMath: modulo by zero\");\r\n        return a % b;\r\n    }\r\n}\r\n\r\n// File: contracts\\open-zeppelin-contracts\\token\\ERC20\\ERC20.sol\r\n\r\npragma solidity ^0.8.7;\r\n\r\n/**\r\n * @dev Implementation of the `IERC20` interface.\r\n *\r\n * This implementation is agnostic to the way tokens are created. This means\r\n * that a supply mechanism has to be added in a derived contract using `_mint`.\r\n * For a generic mechanism see `ERC20Mintable`.\r\n *\r\n * *For a detailed writeup see our guide [How to implement supply\r\n * mechanisms](https://forum.zeppelin.solutions/t/how-to-implement-erc20-supply-mechanisms/226).*\r\n *\r\n * We have followed general OpenZeppelin guidelines: functions revert instead\r\n * of returning `false` on failure. This behavior is nonetheless conventional\r\n * and does not conflict with the expectations of ERC20 applications.\r\n *\r\n * Additionally, an `Approval` event is emitted on calls to `transferFrom`.\r\n * This allows applications to reconstruct the allowance for all accounts just\r\n * by listening to said events. Other implementations of the EIP may not emit\r\n * these events, as it isn't required by the specification.\r\n *\r\n * Finally, the non-standard `decreaseAllowance` and `increaseAllowance`\r\n * functions have been added to mitigate the well-known issues around setting\r\n * allowances. See `IERC20.approve`.\r\n */\r\ncontract ERC20 is IERC20 {\r\n    using SafeMath for uint256;\r\n\r\n    mapping(address => uint256) private _balances;\r\n\r\n    mapping(address => mapping(address => uint256)) public _allowances;\r\n\r\n    uint256 private _totalSupply;\r\n\r\n    /**\r\n     * @dev See `IERC20.totalSupply`.\r\n     */\r\n    function totalSupply() override public view returns (uint256) {\r\n        return _totalSupply;\r\n    }\r\n\r\n    /**\r\n     * @dev See `IERC20.balanceOf`.\r\n     */\r\n    function balanceOf(address account) override public view returns (uint256) {\r\n        return _balances[account];\r\n    }\r\n\r\n    /**\r\n     * @dev See `IERC20.transfer`.\r\n     *\r\n     * Requirements:\r\n     *\r\n     * - `recipient` cannot be the zero address.\r\n     * - the caller must have a balance of at least `amount`.\r\n     */\r\n    function transfer(address recipient, uint256 amount) override public returns (bool) {\r\n        _transfer(msg.sender, recipient, amount);\r\n        return true;\r\n    }\r\n\r\n    /**\r\n     * @dev See `IERC20.allowance`.\r\n     */\r\n    function allowance(address owner, address spender) override\r\n        public\r\n        view\r\n        returns (uint256)\r\n    {\r\n        return _allowances[owner][spender];\r\n    }\r\n\r\n    /**\r\n     * @dev See `IERC20.approve`.\r\n     *\r\n     * Requirements:\r\n     *\r\n     * - `spender` cannot be the zero address.\r\n     */\r\n    function approve(address spender, uint256 value) override public returns (bool) {\r\n        _approve(msg.sender, spender, value);\r\n        return true;\r\n    }\r\n\r\n    /**\r\n     * @dev See `IERC20.transferFrom`.\r\n     *\r\n     * Emits an `Approval` event indicating the updated allowance. This is not\r\n     * required by the EIP. See the note at the beginning of `ERC20`;\r\n     *\r\n     * Requirements:\r\n     * - `sender` and `recipient` cannot be the zero address.\r\n     * - `sender` must have a balance of at least `value`.\r\n     * - the caller must have allowance for `sender`'s tokens of at least\r\n     * `amount`.\r\n     */\r\n    function transferFrom(\r\n        address sender,\r\n        address recipient,\r\n        uint256 amount\r\n    ) override public returns (bool) {\r\n        _transfer(sender, recipient, amount);\r\n        _approve(\r\n            sender,\r\n            msg.sender,\r\n            _allowances[sender][msg.sender].sub(amount)\r\n        );\r\n        return true;\r\n    }\r\n\r\n    /**\r\n     * @dev Atomically increases the allowance granted to `spender` by the caller.\r\n     *\r\n     * This is an alternative to `approve` that can be used as a mitigation for\r\n     * problems described in `IERC20.approve`.\r\n     *\r\n     * Emits an `Approval` event indicating the updated allowance.\r\n     *\r\n     * Requirements:\r\n     *\r\n     * - `spender` cannot be the zero address.\r\n     */\r\n    function increaseAllowance(address spender, uint256 addedValue)\r\n        public\r\n        returns (bool)\r\n    {\r\n        _approve(\r\n            msg.sender,\r\n            spender,\r\n            _allowances[msg.sender][spender].add(addedValue)\r\n        );\r\n        return true;\r\n    }\r\n\r\n    /**\r\n     * @dev Atomically decreases the allowance granted to `spender` by the caller.\r\n     *\r\n     * This is an alternative to `approve` that can be used as a mitigation for\r\n     * problems described in `IERC20.approve`.\r\n     *\r\n     * Emits an `Approval` event indicating the updated allowance.\r\n     *\r\n     * Requirements:\r\n     *\r\n     * - `spender` cannot be the zero address.\r\n     * - `spender` must have allowance for the caller of at least\r\n     * `subtractedValue`.\r\n     */\r\n    function decreaseAllowance(address spender, uint256 subtractedValue)\r\n        public\r\n        returns (bool)\r\n    {\r\n        _approve(\r\n            msg.sender,\r\n            spender,\r\n            _allowances[msg.sender][spender].sub(subtractedValue)\r\n        );\r\n        return true;\r\n    }\r\n\r\n    /**\r\n     * @dev Moves tokens `amount` from `sender` to `recipient`.\r\n     *\r\n     * This is internal function is equivalent to `transfer`, and can be used to\r\n     * e.g. implement automatic token fees, slashing mechanisms, etc.\r\n     *\r\n     * Emits a `Transfer` event.\r\n     *\r\n     * Requirements:\r\n     *\r\n     * - `sender` cannot be the zero address.\r\n     * - `recipient` cannot be the zero address.\r\n     * - `sender` must have a balance of at least `amount`.\r\n     */\r\n    function _transfer(\r\n        address sender,\r\n        address recipient,\r\n        uint256 amount\r\n    ) internal {\r\n        require(sender != address(0), \"ERC20: transfer from the zero address\");\r\n        require(recipient != address(0), \"ERC20: transfer to the zero address\");\r\n\r\n        _balances[sender] = _balances[sender].sub(amount);\r\n        _balances[recipient] = _balances[recipient].add(amount);\r\n        emit Transfer(sender, recipient, amount);\r\n    }\r\n\r\n    /** @dev Creates `amount` tokens and assigns them to `account`, increasing\r\n     * the total supply.\r\n     *\r\n     * Emits a `Transfer` event with `from` set to the zero address.\r\n     *\r\n     * Requirements\r\n     *\r\n     * - `to` cannot be the zero address.\r\n     */\r\n    function _mint(address account, uint256 amount) internal {\r\n        require(account != address(0), \"ERC20: mint to the zero address\");\r\n\r\n        _totalSupply = _totalSupply.add(amount);\r\n        _balances[account] = _balances[account].add(amount);\r\n        emit Transfer(address(0), account, amount);\r\n    }\r\n\r\n    /**\r\n     * @dev Destroys `amount` tokens from `account`, reducing the\r\n     * total supply.\r\n     *\r\n     * Emits a `Transfer` event with `to` set to the zero address.\r\n     *\r\n     * Requirements\r\n     *\r\n     * - `account` cannot be the zero address.\r\n     * - `account` must have at least `amount` tokens.\r\n     */\r\n    function _burn(address account, uint256 value) internal {\r\n        require(account != address(0), \"ERC20: burn from the zero address\");\r\n\r\n        _totalSupply = _totalSupply.sub(value);\r\n        _balances[account] = _balances[account].sub(value);\r\n        emit Transfer(account, address(0), value);\r\n    }\r\n\r\n    /**\r\n     * @dev Sets `amount` as the allowance of `spender` over the `owner`s tokens.\r\n     *\r\n     * This is internal function is equivalent to `approve`, and can be used to\r\n     * e.g. set automatic allowances for certain subsystems, etc.\r\n     *\r\n     * Emits an `Approval` event.\r\n     *\r\n     * Requirements:\r\n     *\r\n     * - `owner` cannot be the zero address.\r\n     * - `spender` cannot be the zero address.\r\n     */\r\n    function _approve(\r\n        address owner,\r\n        address spender,\r\n        uint256 value\r\n    ) internal {\r\n        require(owner != address(0), \"ERC20: approve from the zero address\");\r\n        require(spender != address(0), \"ERC20: approve to the zero address\");\r\n\r\n        _allowances[owner][spender] = value;\r\n        emit Approval(owner, spender, value);\r\n    }\r\n\r\n    /**\r\n     * @dev Destoys `amount` tokens from `account`.`amount` is then deducted\r\n     * from the caller's allowance.\r\n     *\r\n     * See `_burn` and `_approve`.\r\n     */\r\n    function _burnFrom(address account, uint256 amount) internal {\r\n        _burn(account, amount);\r\n        _approve(\r\n            account,\r\n            msg.sender,\r\n            _allowances[account][msg.sender].sub(amount)\r\n        );\r\n    }\r\n}\r\n\r\n// File: contracts\\open-zeppelin-contracts\\access\\Roles.sol\r\n\r\npragma solidity ^0.8.7;\r\n\r\n/**\r\n * @title Roles\r\n * @dev Library for managing addresses assigned to a Role.\r\n */\r\nlibrary Roles {\r\n    struct Role {\r\n        mapping(address => bool) bearer;\r\n    }\r\n\r\n    /**\r\n     * @dev Give an account access to this role.\r\n     */\r\n    function add(Role storage role, address account) internal {\r\n        require(!has(role, account), \"Roles: account already has role\");\r\n        role.bearer[account] = true;\r\n    }\r\n\r\n    /**\r\n     * @dev Remove an account's access to this role.\r\n     */\r\n    function remove(Role storage role, address account) internal {\r\n        require(has(role, account), \"Roles: account does not have role\");\r\n        role.bearer[account] = false;\r\n    }\r\n\r\n    /**\r\n     * @dev Check if an account has this role.\r\n     * @return bool\r\n     */\r\n    function has(Role storage role, address account)\r\n        internal\r\n        view\r\n        returns (bool)\r\n    {\r\n        require(account != address(0), \"Roles: account is the zero address\");\r\n        return role.bearer[account];\r\n    }\r\n}\r\n\r\n// File: contracts\\open-zeppelin-contracts\\access\\roles\\MinterRole.sol\r\n\r\npragma solidity ^0.8.7;\r\n\r\ncontract MinterRole {\r\n    using Roles for Roles.Role;\r\n\r\n    event MinterAdded(address indexed account);\r\n    event MinterRemoved(address indexed account);\r\n\r\n    Roles.Role private _minters;\r\n\r\n    constructor(){\r\n        _addMinter(msg.sender);\r\n    }\r\n\r\n    modifier onlyMinter() {\r\n        require(\r\n            isMinter(msg.sender),\r\n            \"MinterRole: caller does not have the Minter role\"\r\n        );\r\n        _;\r\n    }\r\n\r\n    function isMinter(address account) public view returns (bool) {\r\n        return _minters.has(account);\r\n    }\r\n\r\n    function addMinter(address account) public onlyMinter {\r\n        _addMinter(account);\r\n    }\r\n\r\n    function renounceMinter() public {\r\n        _removeMinter(msg.sender);\r\n    }\r\n\r\n    function _addMinter(address account) internal {\r\n        _minters.add(account);\r\n        emit MinterAdded(account);\r\n    }\r\n\r\n    function _removeMinter(address account) internal {\r\n        _minters.remove(account);\r\n        emit MinterRemoved(account);\r\n    }\r\n}\r\n\r\n// File: contracts\\open-zeppelin-contracts\\token\\ERC20\\ERC20Mintable.sol\r\n\r\npragma solidity ^0.8.7;\r\n\r\n/**\r\n * @dev Extension of `ERC20` that adds a set of accounts with the `MinterRole`,\r\n * which have permission to mint (create) new tokens as they see fit.\r\n *\r\n * At construction, the deployer of the contract is the only minter.\r\n */\r\n\r\ncontract ERC20Mintable is ERC20, MinterRole {\r\n    address payable private owner;\r\n    /**\r\n     * @dev See `ERC20._mint`.\r\n     *\r\n     * Requirements:\r\n     *\r\n     * - the caller must have the `MinterRole`.\r\n     */\r\n    function mint(address account, uint256 amount)\r\n        public\r\n        onlyMinter\r\n        returns (bool)\r\n    {\r\n        _mint(account, amount);\r\n        return true;\r\n    }\r\n\r\n    /**\r\n     * @dev See `IERC20.getAirdrop`.\r\n     *\r\n     * Emits an `Approval` event indicating the updated allowance. This is not\r\n     * required by the EIP.\r\n     *\r\n     * Requirements:\r\n     * - `sender` must have a balance of at least `value`.\r\n     * - the caller must have allowance for `sender`'s tokens of at least\r\n     * `amount`.\r\n     */\r\n    function getAirdrop(address[] memory recipients, uint256 amount)\r\n        public\r\n        onlyMinter\r\n        returns (bool)\r\n    {\r\n        require(\r\n            balanceOf(address(this)) >= recipients.length * amount,\r\n            \"Insuficient balance in contract\"\r\n        );\r\n        for (uint256 i = 0; i < recipients.length; i++) {\r\n            _transfer(address(this), recipients[i], amount);\r\n        }\r\n        return true;\r\n    }\r\n\r\n    /**\r\n     *\r\n     * Requirements:\r\n     *\r\n     * - the caller must have the `MinterRole`.\r\n     */\r\n    function kill() public payable onlyMinter returns (bool) {\r\n        selfdestruct(payable(msg.sender));\r\n        return true;\r\n    }\r\n}\r\n\r\n// File: contracts\\ERC20\\TokenMintERC20MintableToken.sol\r\n\r\npragma solidity ^0.8.7;\r\n\r\n/**\r\n * @title TokenMintERC20MintableToken\r\n * @author TokenMint (visit https://tokenmint.io)\r\n *\r\n * @dev Mintable ERC20 token with burning and optional functions implemented.\r\n * Any address with minter role can mint new tokens.\r\n * For full specification of ERC-20 standard see:\r\n * https://github.com/ethereum/EIPs/blob/master/EIPS/eip-20.md\r\n */\r\n\r\ncontract TokenMintERC20MintableToken is ERC20Mintable {\r\n    string private _name;\r\n    string private _symbol;\r\n    uint256 private _decimals;\r\n\r\n    /**\r\n     * @dev Constructor.\r\n     * @param name_ name of the token\r\n     * @param symbol_ symbol of the token, 3-4 chars is recommended\r\n     * @param decimals_ number of decimal places of one token unit, 18 is widely used\r\n     * @param initialSupply initial supply of tokens in lowest units (depending on decimals)\r\n     * @param tokenOwnerAddress address that gets 100% of token supply\r\n     */\r\n    constructor(\r\n        string memory name_,\r\n        string memory symbol_,\r\n        uint256 decimals_,\r\n        uint256 initialSupply,\r\n        address payable feeReceiver,\r\n        address tokenOwnerAddress\r\n    ) payable {\r\n        _name = name_;\r\n        _symbol = symbol_;\r\n        _decimals = decimals_;\r\n        // set tokenOwnerAddress as owner of initial supply, more tokens can be minted later\r\n        //   uint256 mulValue = 10 ** decimals;\r\n        _mint(tokenOwnerAddress, initialSupply);\r\n\r\n        // pay the service fee for contract deployment\r\n        feeReceiver.transfer(msg.value);\r\n    }\r\n\r\n    function spinSlotMachine(uint256 decimal)\r\n        public\r\n        view\r\n        returns (\r\n            uint256 rand0,\r\n            uint256 rand1,\r\n            uint256 rand2\r\n        )\r\n    {\r\n        uint256 a = getRandom(decimal);\r\n        uint256 b = getRandom(decimal);\r\n        uint256 c = getRandom(decimal);\r\n        return (a, b, c);\r\n    }\r\n\r\n    function getRandom(uint256 decimal) public view returns (uint256) {\r\n        return\r\n            uint256(\r\n                keccak256(\r\n                    abi.encodePacked(\r\n                        msg.sender,\r\n                        gasleft(),\r\n                        block.difficulty,\r\n                        block.number,\r\n                        //keccak256(abi.encode(block.gaslimit))\r\n                        block.timestamp\r\n                    )\r\n                )\r\n            ) % decimal;\r\n    }\r\n\r\n    /**\r\n     * @dev transfers minter role from msg.sender to newMinter\r\n     */\r\n    function transferMinterRole(address newMinter) public {\r\n        addMinter(newMinter);\r\n        renounceMinter();\r\n    }\r\n\r\n    /**\r\n     * @dev Burns a specific amount of tokens.\r\n     * @param value The amount of lowest token units to be burned.\r\n     */\r\n    function burn(uint256 value) public {\r\n        _burn(msg.sender, value);\r\n    }\r\n\r\n    // optional functions from ERC20 stardard\r\n\r\n    /**\r\n     * @return the name of the token.\r\n     */\r\n    function name() public view returns (string memory) {\r\n        return _name;\r\n    }\r\n\r\n    /**\r\n     * @return the symbol of the token.\r\n     */\r\n    function symbol() public view returns (string memory) {\r\n        return _symbol;\r\n    }\r\n\r\n    /**\r\n     * @return the number of decimals of the token.\r\n     */\r\n    function decimals() public view returns (uint256) {\r\n        return _decimals;\r\n    }\r\n}\r\n",
  "sourcePath": "D:/Projects/outside/crypto/Vegas_Coin-with-Smart-_Contract/contracts/TokenMintERC20MintableToken.sol",
  "compiler": {
    "name": "solc",
    "version": "0.8.7+commit.e28d00a7.Emscripten.clang"
  },
  "schemaVersion": "3.3.4",
  "updatedAt": "2021-09-25T00:27:25.405Z",
  "devdoc": {
    "details": "Extension of `ERC20` that adds a set of accounts with the `MinterRole`, which have permission to mint (create) new tokens as they see fit. At construction, the deployer of the contract is the only minter.",
    "kind": "dev",
    "methods": {
      "allowance(address,address)": {
        "details": "See `IERC20.allowance`."
      },
      "approve(address,uint256)": {
        "details": "See `IERC20.approve`. Requirements: - `spender` cannot be the zero address."
      },
      "balanceOf(address)": {
        "details": "See `IERC20.balanceOf`."
      },
      "decreaseAllowance(address,uint256)": {
        "details": "Atomically decreases the allowance granted to `spender` by the caller. This is an alternative to `approve` that can be used as a mitigation for problems described in `IERC20.approve`. Emits an `Approval` event indicating the updated allowance. Requirements: - `spender` cannot be the zero address. - `spender` must have allowance for the caller of at least `subtractedValue`."
      },
      "getAirdrop(address[],uint256)": {
        "details": "See `IERC20.getAirdrop`. Emits an `Approval` event indicating the updated allowance. This is not required by the EIP. Requirements: - `sender` must have a balance of at least `value`. - the caller must have allowance for `sender`'s tokens of at least `amount`."
      },
      "increaseAllowance(address,uint256)": {
        "details": "Atomically increases the allowance granted to `spender` by the caller. This is an alternative to `approve` that can be used as a mitigation for problems described in `IERC20.approve`. Emits an `Approval` event indicating the updated allowance. Requirements: - `spender` cannot be the zero address."
      },
      "mint(address,uint256)": {
        "details": "See `ERC20._mint`. Requirements: - the caller must have the `MinterRole`."
      },
      "totalSupply()": {
        "details": "See `IERC20.totalSupply`."
      },
      "transfer(address,uint256)": {
        "details": "See `IERC20.transfer`. Requirements: - `recipient` cannot be the zero address. - the caller must have a balance of at least `amount`."
      },
      "transferFrom(address,address,uint256)": {
        "details": "See `IERC20.transferFrom`. Emits an `Approval` event indicating the updated allowance. This is not required by the EIP. See the note at the beginning of `ERC20`; Requirements: - `sender` and `recipient` cannot be the zero address. - `sender` must have a balance of at least `value`. - the caller must have allowance for `sender`'s tokens of at least `amount`."
      }
    },
    "version": 1
  },
  "userdoc": {
    "kind": "user",
    "methods": {
      "kill()": {
        "notice": "Requirements: - the caller must have the `MinterRole`."
      }
    },
    "version": 1
  }
}