{
  "contractName": "TokenMintERC20MintableToken",
  "abi": [
    {
      "inputs": [
        {
          "internalType": "string",
          "name": "name_",
          "type": "string"
        },
        {
          "internalType": "string",
          "name": "symbol_",
          "type": "string"
        },
        {
          "internalType": "uint256",
          "name": "decimals_",
          "type": "uint256"
        },
        {
          "internalType": "uint256",
          "name": "initialSupply",
          "type": "uint256"
        },
        {
          "internalType": "address payable",
          "name": "feeReceiver",
          "type": "address"
        },
        {
          "internalType": "address",
          "name": "tokenOwnerAddress",
          "type": "address"
        }
      ],
      "stateMutability": "payable",
      "type": "constructor"
    },
    {
      "anonymous": false,
      "inputs": [
        {
          "indexed": true,
          "internalType": "address",
          "name": "owner",
          "type": "address"
        },
        {
          "indexed": true,
          "internalType": "address",
          "name": "spender",
          "type": "address"
        },
        {
          "indexed": false,
          "internalType": "uint256",
          "name": "value",
          "type": "uint256"
        }
      ],
      "name": "Approval",
      "type": "event"
    },
    {
      "anonymous": false,
      "inputs": [
        {
          "indexed": true,
          "internalType": "address",
          "name": "account",
          "type": "address"
        }
      ],
      "name": "MinterAdded",
      "type": "event"
    },
    {
      "anonymous": false,
      "inputs": [
        {
          "indexed": true,
          "internalType": "address",
          "name": "account",
          "type": "address"
        }
      ],
      "name": "MinterRemoved",
      "type": "event"
    },
    {
      "anonymous": false,
      "inputs": [
        {
          "indexed": true,
          "internalType": "address",
          "name": "from",
          "type": "address"
        },
        {
          "indexed": true,
          "internalType": "address",
          "name": "to",
          "type": "address"
        },
        {
          "indexed": false,
          "internalType": "uint256",
          "name": "value",
          "type": "uint256"
        }
      ],
      "name": "Transfer",
      "type": "event"
    },
    {
      "inputs": [
        {
          "internalType": "address",
          "name": "",
          "type": "address"
        },
        {
          "internalType": "address",
          "name": "",
          "type": "address"
        }
      ],
      "name": "_allowances",
      "outputs": [
        {
          "internalType": "uint256",
          "name": "",
          "type": "uint256"
        }
      ],
      "stateMutability": "view",
      "type": "function"
    },
    {
      "inputs": [
        {
          "internalType": "address",
          "name": "account",
          "type": "address"
        }
      ],
      "name": "addMinter",
      "outputs": [],
      "stateMutability": "nonpayable",
      "type": "function"
    },
    {
      "inputs": [
        {
          "internalType": "address",
          "name": "owner",
          "type": "address"
        },
        {
          "internalType": "address",
          "name": "spender",
          "type": "address"
        }
      ],
      "name": "allowance",
      "outputs": [
        {
          "internalType": "uint256",
          "name": "",
          "type": "uint256"
        }
      ],
      "stateMutability": "view",
      "type": "function"
    },
    {
      "inputs": [
        {
          "internalType": "address",
          "name": "spender",
          "type": "address"
        },
        {
          "internalType": "uint256",
          "name": "value",
          "type": "uint256"
        }
      ],
      "name": "approve",
      "outputs": [
        {
          "internalType": "bool",
          "name": "",
          "type": "bool"
        }
      ],
      "stateMutability": "nonpayable",
      "type": "function"
    },
    {
      "inputs": [
        {
          "internalType": "address",
          "name": "account",
          "type": "address"
        }
      ],
      "name": "balanceOf",
      "outputs": [
        {
          "internalType": "uint256",
          "name": "",
          "type": "uint256"
        }
      ],
      "stateMutability": "view",
      "type": "function"
    },
    {
      "inputs": [
        {
          "internalType": "address",
          "name": "spender",
          "type": "address"
        },
        {
          "internalType": "uint256",
          "name": "subtractedValue",
          "type": "uint256"
        }
      ],
      "name": "decreaseAllowance",
      "outputs": [
        {
          "internalType": "bool",
          "name": "",
          "type": "bool"
        }
      ],
      "stateMutability": "nonpayable",
      "type": "function"
    },
    {
      "inputs": [
        {
          "internalType": "address[]",
          "name": "recipients",
          "type": "address[]"
        },
        {
          "internalType": "uint256",
          "name": "amount",
          "type": "uint256"
        }
      ],
      "name": "getAirdrop",
      "outputs": [
        {
          "internalType": "bool",
          "name": "",
          "type": "bool"
        }
      ],
      "stateMutability": "nonpayable",
      "type": "function"
    },
    {
      "inputs": [
        {
          "internalType": "address",
          "name": "spender",
          "type": "address"
        },
        {
          "internalType": "uint256",
          "name": "addedValue",
          "type": "uint256"
        }
      ],
      "name": "increaseAllowance",
      "outputs": [
        {
          "internalType": "bool",
          "name": "",
          "type": "bool"
        }
      ],
      "stateMutability": "nonpayable",
      "type": "function"
    },
    {
      "inputs": [
        {
          "internalType": "address",
          "name": "account",
          "type": "address"
        }
      ],
      "name": "isMinter",
      "outputs": [
        {
          "internalType": "bool",
          "name": "",
          "type": "bool"
        }
      ],
      "stateMutability": "view",
      "type": "function"
    },
    {
      "inputs": [],
      "name": "kill",
      "outputs": [
        {
          "internalType": "bool",
          "name": "",
          "type": "bool"
        }
      ],
      "stateMutability": "payable",
      "type": "function"
    },
    {
      "inputs": [
        {
          "internalType": "address",
          "name": "account",
          "type": "address"
        },
        {
          "internalType": "uint256",
          "name": "amount",
          "type": "uint256"
        }
      ],
      "name": "mint",
      "outputs": [
        {
          "internalType": "bool",
          "name": "",
          "type": "bool"
        }
      ],
      "stateMutability": "nonpayable",
      "type": "function"
    },
    {
      "inputs": [],
      "name": "renounceMinter",
      "outputs": [],
      "stateMutability": "nonpayable",
      "type": "function"
    },
    {
      "inputs": [],
      "name": "totalSupply",
      "outputs": [
        {
          "internalType": "uint256",
          "name": "",
          "type": "uint256"
        }
      ],
      "stateMutability": "view",
      "type": "function"
    },
    {
      "inputs": [
        {
          "internalType": "address",
          "name": "recipient",
          "type": "address"
        },
        {
          "internalType": "uint256",
          "name": "amount",
          "type": "uint256"
        }
      ],
      "name": "transfer",
      "outputs": [
        {
          "internalType": "bool",
          "name": "",
          "type": "bool"
        }
      ],
      "stateMutability": "nonpayable",
      "type": "function"
    },
    {
      "inputs": [
        {
          "internalType": "address",
          "name": "sender",
          "type": "address"
        },
        {
          "internalType": "address",
          "name": "recipient",
          "type": "address"
        },
        {
          "internalType": "uint256",
          "name": "amount",
          "type": "uint256"
        }
      ],
      "name": "transferFrom",
      "outputs": [
        {
          "internalType": "bool",
          "name": "",
          "type": "bool"
        }
      ],
      "stateMutability": "nonpayable",
      "type": "function"
    },
    {
      "inputs": [
        {
          "internalType": "uint256",
          "name": "decimal",
          "type": "uint256"
        }
      ],
      "name": "spinSlotMachine",
      "outputs": [
        {
          "internalType": "uint256",
          "name": "rand0",
          "type": "uint256"
        },
        {
          "internalType": "uint256",
          "name": "rand1",
          "type": "uint256"
        },
        {
          "internalType": "uint256",
          "name": "rand2",
          "type": "uint256"
        }
      ],
      "stateMutability": "view",
      "type": "function"
    },
    {
      "inputs": [
        {
          "internalType": "uint256",
          "name": "decimal",
          "type": "uint256"
        }
      ],
      "name": "getRandom",
      "outputs": [
        {
          "internalType": "uint256",
          "name": "",
          "type": "uint256"
        }
      ],
      "stateMutability": "view",
      "type": "function"
    },
    {
      "inputs": [
        {
          "internalType": "address",
          "name": "newMinter",
          "type": "address"
        }
      ],
      "name": "transferMinterRole",
      "outputs": [],
      "stateMutability": "nonpayable",
      "type": "function"
    },
    {
      "inputs": [
        {
          "internalType": "uint256",
          "name": "value",
          "type": "uint256"
        }
      ],
      "name": "burn",
      "outputs": [],
      "stateMutability": "nonpayable",
      "type": "function"
    },
    {
      "inputs": [],
      "name": "name",
      "outputs": [
        {
          "internalType": "string",
          "name": "",
          "type": "string"
        }
      ],
      "stateMutability": "view",
      "type": "function"
    },
    {
      "inputs": [],
      "name": "symbol",
      "outputs": [
        {
          "internalType": "string",
          "name": "",
          "type": "string"
        }
      ],
      "stateMutability": "view",
      "type": "function"
    },
    {
      "inputs": [],
      "name": "decimals",
      "outputs": [
        {
          "internalType": "uint256",
          "name": "",
          "type": "uint256"
        }
      ],
      "stateMutability": "view",
      "type": "function"
    }
  ],
  "bytecode": "0x60806040526040516200326338038062003263833981810160405281019062000029919062000629565b6200003a33620000d960201b60201c565b856005908051906020019062000052929190620004b6565b5084600690805190602001906200006b929190620004b6565b50836007819055506200008581846200013a60201b60201c565b8173ffffffffffffffffffffffffffffffffffffffff166108fc349081150290604051600060405180830381858888f19350505050158015620000cc573d6000803e3d6000fd5b5050505050505062000be0565b620000f4816003620002d560201b62000cd81790919060201c565b8073ffffffffffffffffffffffffffffffffffffffff167f6ae172837ea30b801fbfcdd4108aa1d5bf8ff775444fd70256b44e6bf3dfc3f660405160405180910390a250565b600073ffffffffffffffffffffffffffffffffffffffff168273ffffffffffffffffffffffffffffffffffffffff161415620001ad576040517f08c379a0000000000000000000000000000000000000000000000000000000008152600401620001a49062000816565b60405180910390fd5b620001c9816002546200038860201b62000d801790919060201c565b60028190555062000227816000808573ffffffffffffffffffffffffffffffffffffffff1673ffffffffffffffffffffffffffffffffffffffff168152602001908152602001600020546200038860201b62000d801790919060201c565b6000808473ffffffffffffffffffffffffffffffffffffffff1673ffffffffffffffffffffffffffffffffffffffff168152602001908152602001600020819055508173ffffffffffffffffffffffffffffffffffffffff16600073ffffffffffffffffffffffffffffffffffffffff167fddf252ad1be2c89b69c2b068fc378daa952ba7f163c4a11628f55a4df523b3ef83604051620002c9919062000838565b60405180910390a35050565b620002e78282620003eb60201b60201c565b156200032a576040517f08c379a00000000000000000000000000000000000000000000000000000000081526004016200032190620007b0565b60405180910390fd5b60018260000160008373ffffffffffffffffffffffffffffffffffffffff1673ffffffffffffffffffffffffffffffffffffffff16815260200190815260200160002060006101000a81548160ff0219169083151502179055505050565b6000808284620003999190620008c5565b905083811015620003e1576040517f08c379a0000000000000000000000000000000000000000000000000000000008152600401620003d890620007d2565b60405180910390fd5b8091505092915050565b60008073ffffffffffffffffffffffffffffffffffffffff168273ffffffffffffffffffffffffffffffffffffffff1614156200045f576040517f08c379a00000000000000000000000000000000000000000000000000000000081526004016200045690620007f4565b60405180910390fd5b8260000160008373ffffffffffffffffffffffffffffffffffffffff1673ffffffffffffffffffffffffffffffffffffffff16815260200190815260200160002060009054906101000a900460ff16905092915050565b828054620004c490620009aa565b90600052602060002090601f016020900481019282620004e8576000855562000534565b82601f106200050357805160ff191683800117855562000534565b8280016001018555821562000534579182015b828111156200053357825182559160200191906001019062000516565b5b50905062000543919062000547565b5090565b5b808211156200056257600081600090555060010162000548565b5090565b60006200057d62000577846200087e565b62000855565b9050828152602081018484840111156200059c576200059b62000aa8565b5b620005a984828562000974565b509392505050565b600081519050620005c28162000b92565b92915050565b600081519050620005d98162000bac565b92915050565b600082601f830112620005f757620005f662000aa3565b5b81516200060984826020860162000566565b91505092915050565b600081519050620006238162000bc6565b92915050565b60008060008060008060c0878903121562000649576200064862000ab2565b5b600087015167ffffffffffffffff8111156200066a576200066962000aad565b5b6200067889828a01620005df565b965050602087015167ffffffffffffffff8111156200069c576200069b62000aad565b5b620006aa89828a01620005df565b9550506040620006bd89828a0162000612565b9450506060620006d089828a0162000612565b9350506080620006e389828a01620005c8565b92505060a0620006f689828a01620005b1565b9150509295509295509295565b600062000712601f83620008b4565b91506200071f8262000ac8565b602082019050919050565b600062000739601b83620008b4565b9150620007468262000af1565b602082019050919050565b600062000760602283620008b4565b91506200076d8262000b1a565b604082019050919050565b600062000787601f83620008b4565b9150620007948262000b69565b602082019050919050565b620007aa816200096a565b82525050565b60006020820190508181036000830152620007cb8162000703565b9050919050565b60006020820190508181036000830152620007ed816200072a565b9050919050565b600060208201905081810360008301526200080f8162000751565b9050919050565b60006020820190508181036000830152620008318162000778565b9050919050565b60006020820190506200084f60008301846200079f565b92915050565b60006200086162000874565b90506200086f8282620009e0565b919050565b6000604051905090565b600067ffffffffffffffff8211156200089c576200089b62000a74565b5b620008a78262000ab7565b9050602081019050919050565b600082825260208201905092915050565b6000620008d2826200096a565b9150620008df836200096a565b9250827fffffffffffffffffffffffffffffffffffffffffffffffffffffffffffffffff0382111562000917576200091662000a16565b5b828201905092915050565b60006200092f826200094a565b9050919050565b600062000943826200094a565b9050919050565b600073ffffffffffffffffffffffffffffffffffffffff82169050919050565b6000819050919050565b60005b838110156200099457808201518184015260208101905062000977565b83811115620009a4576000848401525b50505050565b60006002820490506001821680620009c357607f821691505b60208210811415620009da57620009d962000a45565b5b50919050565b620009eb8262000ab7565b810181811067ffffffffffffffff8211171562000a0d5762000a0c62000a74565b5b80604052505050565b7f4e487b7100000000000000000000000000000000000000000000000000000000600052601160045260246000fd5b7f4e487b7100000000000000000000000000000000000000000000000000000000600052602260045260246000fd5b7f4e487b7100000000000000000000000000000000000000000000000000000000600052604160045260246000fd5b600080fd5b600080fd5b600080fd5b600080fd5b6000601f19601f8301169050919050565b7f526f6c65733a206163636f756e7420616c72656164792068617320726f6c6500600082015250565b7f536166654d6174683a206164646974696f6e206f766572666c6f770000000000600082015250565b7f526f6c65733a206163636f756e7420697320746865207a65726f20616464726560008201527f7373000000000000000000000000000000000000000000000000000000000000602082015250565b7f45524332303a206d696e7420746f20746865207a65726f206164647265737300600082015250565b62000b9d8162000922565b811462000ba957600080fd5b50565b62000bb78162000936565b811462000bc357600080fd5b50565b62000bd1816200096a565b811462000bdd57600080fd5b50565b6126738062000bf06000396000f3fe6080604052600436106101355760003560e01c806370a08231116100ab578063a79c4eba1161006f578063a79c4eba14610457578063a9059cbb14610494578063aa271e1a146104d1578063b8bf60f91461050e578063cd4b691414610537578063dd62ed3e1461057457610135565b806370a082311461037257806395d89b41146103af578063983b2d56146103da5780639865027514610403578063a457c2d71461041a57610135565b8063313ce567116100fd578063313ce56714610247578063395093511461027257806340c10f19146102af57806341c0e1b5146102ec57806342966c681461030a5780635c7da96e1461033357610135565b8063024c2ddd1461013a57806306fdde0314610177578063095ea7b3146101a257806318160ddd146101df57806323b872dd1461020a575b600080fd5b34801561014657600080fd5b50610161600480360381019061015c91906118a0565b6105b1565b60405161016e9190611e84565b60405180910390f35b34801561018357600080fd5b5061018c6105d6565b6040516101999190611cc2565b60405180910390f35b3480156101ae57600080fd5b506101c960048036038101906101c49190611933565b610668565b6040516101d69190611ca7565b60405180910390f35b3480156101eb57600080fd5b506101f461067f565b6040516102019190611e84565b60405180910390f35b34801561021657600080fd5b50610231600480360381019061022c91906118e0565b610689565b60405161023e9190611ca7565b60405180910390f35b34801561025357600080fd5b5061025c61073a565b6040516102699190611e84565b60405180910390f35b34801561027e57600080fd5b5061029960048036038101906102949190611933565b610744565b6040516102a69190611ca7565b60405180910390f35b3480156102bb57600080fd5b506102d660048036038101906102d19190611933565b6107e9565b6040516102e39190611ca7565b60405180910390f35b6102f4610847565b6040516103019190611ca7565b60405180910390f35b34801561031657600080fd5b50610331600480360381019061032c91906119cf565b6108aa565b005b34801561033f57600080fd5b5061035a600480360381019061035591906119cf565b6108b7565b60405161036993929190611e9f565b60405180910390f35b34801561037e57600080fd5b5061039960048036038101906103949190611873565b6108f5565b6040516103a69190611e84565b60405180910390f35b3480156103bb57600080fd5b506103c461093d565b6040516103d19190611cc2565b60405180910390f35b3480156103e657600080fd5b5061040160048036038101906103fc9190611873565b6109cf565b005b34801561040f57600080fd5b50610418610a23565b005b34801561042657600080fd5b50610441600480360381019061043c9190611933565b610a2e565b60405161044e9190611ca7565b60405180910390f35b34801561046357600080fd5b5061047e60048036038101906104799190611973565b610ad3565b60405161048b9190611ca7565b60405180910390f35b3480156104a057600080fd5b506104bb60048036038101906104b69190611933565b610bc3565b6040516104c89190611ca7565b60405180910390f35b3480156104dd57600080fd5b506104f860048036038101906104f39190611873565b610bda565b6040516105059190611ca7565b60405180910390f35b34801561051a57600080fd5b5061053560048036038101906105309190611873565b610bf7565b005b34801561054357600080fd5b5061055e600480360381019061055991906119cf565b610c0b565b60405161056b9190611e84565b60405180910390f35b34801561058057600080fd5b5061059b600480360381019061059691906118a0565b610c51565b6040516105a89190611e84565b60405180910390f35b6001602052816000526040600020602052806000526040600020600091509150505481565b6060600580546105e5906120a2565b80601f0160208091040260200160405190810160405280929190818152602001828054610611906120a2565b801561065e5780601f106106335761010080835404028352916020019161065e565b820191906000526020600020905b81548152906001019060200180831161064157829003601f168201915b5050505050905090565b6000610675338484610dde565b6001905092915050565b6000600254905090565b6000610696848484610fa9565b61072f843361072a85600160008a73ffffffffffffffffffffffffffffffffffffffff1673ffffffffffffffffffffffffffffffffffffffff16815260200190815260200160002060003373ffffffffffffffffffffffffffffffffffffffff1673ffffffffffffffffffffffffffffffffffffffff1681526020019081526020016000205461121990919063ffffffff16565b610dde565b600190509392505050565b6000600754905090565b60006107df33846107da85600160003373ffffffffffffffffffffffffffffffffffffffff1673ffffffffffffffffffffffffffffffffffffffff16815260200190815260200160002060008973ffffffffffffffffffffffffffffffffffffffff1673ffffffffffffffffffffffffffffffffffffffff16815260200190815260200160002054610d8090919063ffffffff16565b610dde565b6001905092915050565b60006107f433610bda565b610833576040517f08c379a000000000000000000000000000000000000000000000000000000000815260040161082a90611d84565b60405180910390fd5b61083d8383611278565b6001905092915050565b600061085233610bda565b610891576040517f08c379a000000000000000000000000000000000000000000000000000000000815260040161088890611d84565b60405180910390fd5b3373ffffffffffffffffffffffffffffffffffffffff16ff5b6108b43382611400565b50565b6000806000806108c685610c0b565b905060006108d386610c0b565b905060006108e087610c0b565b90508282829550955095505050509193909250565b60008060008373ffffffffffffffffffffffffffffffffffffffff1673ffffffffffffffffffffffffffffffffffffffff168152602001908152602001600020549050919050565b60606006805461094c906120a2565b80601f0160208091040260200160405190810160405280929190818152602001828054610978906120a2565b80156109c55780601f1061099a576101008083540402835291602001916109c5565b820191906000526020600020905b8154815290600101906020018083116109a857829003601f168201915b5050505050905090565b6109d833610bda565b610a17576040517f08c379a0000000000000000000000000000000000000000000000000000000008152600401610a0e90611d84565b60405180910390fd5b610a2081611588565b50565b610a2c336115e2565b565b6000610ac93384610ac485600160003373ffffffffffffffffffffffffffffffffffffffff1673ffffffffffffffffffffffffffffffffffffffff16815260200190815260200160002060008973ffffffffffffffffffffffffffffffffffffffff1673ffffffffffffffffffffffffffffffffffffffff1681526020019081526020016000205461121990919063ffffffff16565b610dde565b6001905092915050565b6000610ade33610bda565b610b1d576040517f08c379a0000000000000000000000000000000000000000000000000000000008152600401610b1490611d84565b60405180910390fd5b818351610b2a9190611f99565b610b33306108f5565b1015610b74576040517f08c379a0000000000000000000000000000000000000000000000000000000008152600401610b6b90611e24565b60405180910390fd5b60005b8351811015610bb857610ba530858381518110610b9757610b9661223a565b5b602002602001015185610fa9565b8080610bb090612105565b915050610b77565b506001905092915050565b6000610bd0338484610fa9565b6001905092915050565b6000610bf082600361163c90919063ffffffff16565b9050919050565b610c00816109cf565b610c08610a23565b50565b600081335a444342604051602001610c27959493929190611c48565b6040516020818303038152906040528051906020012060001c610c4a919061217c565b9050919050565b6000600160008473ffffffffffffffffffffffffffffffffffffffff1673ffffffffffffffffffffffffffffffffffffffff16815260200190815260200160002060008373ffffffffffffffffffffffffffffffffffffffff1673ffffffffffffffffffffffffffffffffffffffff16815260200190815260200160002054905092915050565b610ce2828261163c565b15610d22576040517f08c379a0000000000000000000000000000000000000000000000000000000008152600401610d1990611d04565b60405180910390fd5b60018260000160008373ffffffffffffffffffffffffffffffffffffffff1673ffffffffffffffffffffffffffffffffffffffff16815260200190815260200160002060006101000a81548160ff0219169083151502179055505050565b6000808284610d8f9190611f43565b905083811015610dd4576040517f08c379a0000000000000000000000000000000000000000000000000000000008152600401610dcb90611d44565b60405180910390fd5b8091505092915050565b600073ffffffffffffffffffffffffffffffffffffffff168373ffffffffffffffffffffffffffffffffffffffff161415610e4e576040517f08c379a0000000000000000000000000000000000000000000000000000000008152600401610e4590611e44565b60405180910390fd5b600073ffffffffffffffffffffffffffffffffffffffff168273ffffffffffffffffffffffffffffffffffffffff161415610ebe576040517f08c379a0000000000000000000000000000000000000000000000000000000008152600401610eb590611d24565b60405180910390fd5b80600160008573ffffffffffffffffffffffffffffffffffffffff1673ffffffffffffffffffffffffffffffffffffffff16815260200190815260200160002060008473ffffffffffffffffffffffffffffffffffffffff1673ffffffffffffffffffffffffffffffffffffffff168152602001908152602001600020819055508173ffffffffffffffffffffffffffffffffffffffff168373ffffffffffffffffffffffffffffffffffffffff167f8c5be1e5ebec7d5bd14f71427d1e84f3dd0314c0f7b2291e5b200ac8c7c3b92583604051610f9c9190611e84565b60405180910390a3505050565b600073ffffffffffffffffffffffffffffffffffffffff168373ffffffffffffffffffffffffffffffffffffffff161415611019576040517f08c379a000000000000000000000000000000000000000000000000000000000815260040161101090611e04565b60405180910390fd5b600073ffffffffffffffffffffffffffffffffffffffff168273ffffffffffffffffffffffffffffffffffffffff161415611089576040517f08c379a000000000000000000000000000000000000000000000000000000000815260040161108090611ce4565b60405180910390fd5b6110da816000808673ffffffffffffffffffffffffffffffffffffffff1673ffffffffffffffffffffffffffffffffffffffff1681526020019081526020016000205461121990919063ffffffff16565b6000808573ffffffffffffffffffffffffffffffffffffffff1673ffffffffffffffffffffffffffffffffffffffff1681526020019081526020016000208190555061116d816000808573ffffffffffffffffffffffffffffffffffffffff1673ffffffffffffffffffffffffffffffffffffffff16815260200190815260200160002054610d8090919063ffffffff16565b6000808473ffffffffffffffffffffffffffffffffffffffff1673ffffffffffffffffffffffffffffffffffffffff168152602001908152602001600020819055508173ffffffffffffffffffffffffffffffffffffffff168373ffffffffffffffffffffffffffffffffffffffff167fddf252ad1be2c89b69c2b068fc378daa952ba7f163c4a11628f55a4df523b3ef8360405161120c9190611e84565b60405180910390a3505050565b60008282111561125e576040517f08c379a000000000000000000000000000000000000000000000000000000000815260040161125590611d64565b60405180910390fd5b6000828461126c9190611ff3565b90508091505092915050565b600073ffffffffffffffffffffffffffffffffffffffff168273ffffffffffffffffffffffffffffffffffffffff1614156112e8576040517f08c379a00000000000000000000000000000000000000000000000000000000081526004016112df90611e64565b60405180910390fd5b6112fd81600254610d8090919063ffffffff16565b600281905550611354816000808573ffffffffffffffffffffffffffffffffffffffff1673ffffffffffffffffffffffffffffffffffffffff16815260200190815260200160002054610d8090919063ffffffff16565b6000808473ffffffffffffffffffffffffffffffffffffffff1673ffffffffffffffffffffffffffffffffffffffff168152602001908152602001600020819055508173ffffffffffffffffffffffffffffffffffffffff16600073ffffffffffffffffffffffffffffffffffffffff167fddf252ad1be2c89b69c2b068fc378daa952ba7f163c4a11628f55a4df523b3ef836040516113f49190611e84565b60405180910390a35050565b600073ffffffffffffffffffffffffffffffffffffffff168273ffffffffffffffffffffffffffffffffffffffff161415611470576040517f08c379a000000000000000000000000000000000000000000000000000000000815260040161146790611de4565b60405180910390fd5b6114858160025461121990919063ffffffff16565b6002819055506114dc816000808573ffffffffffffffffffffffffffffffffffffffff1673ffffffffffffffffffffffffffffffffffffffff1681526020019081526020016000205461121990919063ffffffff16565b6000808473ffffffffffffffffffffffffffffffffffffffff1673ffffffffffffffffffffffffffffffffffffffff16815260200190815260200160002081905550600073ffffffffffffffffffffffffffffffffffffffff168273ffffffffffffffffffffffffffffffffffffffff167fddf252ad1be2c89b69c2b068fc378daa952ba7f163c4a11628f55a4df523b3ef8360405161157c9190611e84565b60405180910390a35050565b61159c816003610cd890919063ffffffff16565b8073ffffffffffffffffffffffffffffffffffffffff167f6ae172837ea30b801fbfcdd4108aa1d5bf8ff775444fd70256b44e6bf3dfc3f660405160405180910390a250565b6115f681600361170490919063ffffffff16565b8073ffffffffffffffffffffffffffffffffffffffff167fe94479a9f7e1952cc78f2d6baab678adc1b772d936c6583def489e524cb6669260405160405180910390a250565b60008073ffffffffffffffffffffffffffffffffffffffff168273ffffffffffffffffffffffffffffffffffffffff1614156116ad576040517f08c379a00000000000000000000000000000000000000000000000000000000081526004016116a490611dc4565b60405180910390fd5b8260000160008373ffffffffffffffffffffffffffffffffffffffff1673ffffffffffffffffffffffffffffffffffffffff16815260200190815260200160002060009054906101000a900460ff16905092915050565b61170e828261163c565b61174d576040517f08c379a000000000000000000000000000000000000000000000000000000000815260040161174490611da4565b60405180910390fd5b60008260000160008373ffffffffffffffffffffffffffffffffffffffff1673ffffffffffffffffffffffffffffffffffffffff16815260200190815260200160002060006101000a81548160ff0219169083151502179055505050565b60006117be6117b984611efb565b611ed6565b905080838252602082019050828560208602820111156117e1576117e061229d565b5b60005b8581101561181157816117f7888261181b565b8452602084019350602083019250506001810190506117e4565b5050509392505050565b60008135905061182a8161260f565b92915050565b600082601f83011261184557611844612298565b5b81356118558482602086016117ab565b91505092915050565b60008135905061186d81612626565b92915050565b600060208284031215611889576118886122a7565b5b60006118978482850161181b565b91505092915050565b600080604083850312156118b7576118b66122a7565b5b60006118c58582860161181b565b92505060206118d68582860161181b565b9150509250929050565b6000806000606084860312156118f9576118f86122a7565b5b60006119078682870161181b565b93505060206119188682870161181b565b92505060406119298682870161185e565b9150509250925092565b6000806040838503121561194a576119496122a7565b5b60006119588582860161181b565b92505060206119698582860161185e565b9150509250929050565b6000806040838503121561198a576119896122a7565b5b600083013567ffffffffffffffff8111156119a8576119a76122a2565b5b6119b485828601611830565b92505060206119c58582860161185e565b9150509250929050565b6000602082840312156119e5576119e46122a7565b5b60006119f38482850161185e565b91505092915050565b611a0d611a0882612027565b61214e565b82525050565b611a1c81612039565b82525050565b6000611a2d82611f27565b611a378185611f32565b9350611a4781856020860161206f565b611a50816122ac565b840191505092915050565b6000611a68602383611f32565b9150611a73826122ca565b604082019050919050565b6000611a8b601f83611f32565b9150611a9682612319565b602082019050919050565b6000611aae602283611f32565b9150611ab982612342565b604082019050919050565b6000611ad1601b83611f32565b9150611adc82612391565b602082019050919050565b6000611af4601e83611f32565b9150611aff826123ba565b602082019050919050565b6000611b17603083611f32565b9150611b22826123e3565b604082019050919050565b6000611b3a602183611f32565b9150611b4582612432565b604082019050919050565b6000611b5d602283611f32565b9150611b6882612481565b604082019050919050565b6000611b80602183611f32565b9150611b8b826124d0565b604082019050919050565b6000611ba3602583611f32565b9150611bae8261251f565b604082019050919050565b6000611bc6601f83611f32565b9150611bd18261256e565b602082019050919050565b6000611be9602483611f32565b9150611bf482612597565b604082019050919050565b6000611c0c601f83611f32565b9150611c17826125e6565b602082019050919050565b611c2b81612065565b82525050565b611c42611c3d82612065565b612172565b82525050565b6000611c5482886119fc565b601482019150611c648287611c31565b602082019150611c748286611c31565b602082019150611c848285611c31565b602082019150611c948284611c31565b6020820191508190509695505050505050565b6000602082019050611cbc6000830184611a13565b92915050565b60006020820190508181036000830152611cdc8184611a22565b905092915050565b60006020820190508181036000830152611cfd81611a5b565b9050919050565b60006020820190508181036000830152611d1d81611a7e565b9050919050565b60006020820190508181036000830152611d3d81611aa1565b9050919050565b60006020820190508181036000830152611d5d81611ac4565b9050919050565b60006020820190508181036000830152611d7d81611ae7565b9050919050565b60006020820190508181036000830152611d9d81611b0a565b9050919050565b60006020820190508181036000830152611dbd81611b2d565b9050919050565b60006020820190508181036000830152611ddd81611b50565b9050919050565b60006020820190508181036000830152611dfd81611b73565b9050919050565b60006020820190508181036000830152611e1d81611b96565b9050919050565b60006020820190508181036000830152611e3d81611bb9565b9050919050565b60006020820190508181036000830152611e5d81611bdc565b9050919050565b60006020820190508181036000830152611e7d81611bff565b9050919050565b6000602082019050611e996000830184611c22565b92915050565b6000606082019050611eb46000830186611c22565b611ec16020830185611c22565b611ece6040830184611c22565b949350505050565b6000611ee0611ef1565b9050611eec82826120d4565b919050565b6000604051905090565b600067ffffffffffffffff821115611f1657611f15612269565b5b602082029050602081019050919050565b600081519050919050565b600082825260208201905092915050565b6000611f4e82612065565b9150611f5983612065565b9250827fffffffffffffffffffffffffffffffffffffffffffffffffffffffffffffffff03821115611f8e57611f8d6121ad565b5b828201905092915050565b6000611fa482612065565b9150611faf83612065565b9250817fffffffffffffffffffffffffffffffffffffffffffffffffffffffffffffffff0483118215151615611fe857611fe76121ad565b5b828202905092915050565b6000611ffe82612065565b915061200983612065565b92508282101561201c5761201b6121ad565b5b828203905092915050565b600061203282612045565b9050919050565b60008115159050919050565b600073ffffffffffffffffffffffffffffffffffffffff82169050919050565b6000819050919050565b60005b8381101561208d578082015181840152602081019050612072565b8381111561209c576000848401525b50505050565b600060028204905060018216806120ba57607f821691505b602082108114156120ce576120cd61220b565b5b50919050565b6120dd826122ac565b810181811067ffffffffffffffff821117156120fc576120fb612269565b5b80604052505050565b600061211082612065565b91507fffffffffffffffffffffffffffffffffffffffffffffffffffffffffffffffff821415612143576121426121ad565b5b600182019050919050565b600061215982612160565b9050919050565b600061216b826122bd565b9050919050565b6000819050919050565b600061218782612065565b915061219283612065565b9250826121a2576121a16121dc565b5b828206905092915050565b7f4e487b7100000000000000000000000000000000000000000000000000000000600052601160045260246000fd5b7f4e487b7100000000000000000000000000000000000000000000000000000000600052601260045260246000fd5b7f4e487b7100000000000000000000000000000000000000000000000000000000600052602260045260246000fd5b7f4e487b7100000000000000000000000000000000000000000000000000000000600052603260045260246000fd5b7f4e487b7100000000000000000000000000000000000000000000000000000000600052604160045260246000fd5b600080fd5b600080fd5b600080fd5b600080fd5b6000601f19601f8301169050919050565b60008160601b9050919050565b7f45524332303a207472616e7366657220746f20746865207a65726f206164647260008201527f6573730000000000000000000000000000000000000000000000000000000000602082015250565b7f526f6c65733a206163636f756e7420616c72656164792068617320726f6c6500600082015250565b7f45524332303a20617070726f766520746f20746865207a65726f20616464726560008201527f7373000000000000000000000000000000000000000000000000000000000000602082015250565b7f536166654d6174683a206164646974696f6e206f766572666c6f770000000000600082015250565b7f536166654d6174683a207375627472616374696f6e206f766572666c6f770000600082015250565b7f4d696e746572526f6c653a2063616c6c657220646f6573206e6f74206861766560008201527f20746865204d696e74657220726f6c6500000000000000000000000000000000602082015250565b7f526f6c65733a206163636f756e7420646f6573206e6f74206861766520726f6c60008201527f6500000000000000000000000000000000000000000000000000000000000000602082015250565b7f526f6c65733a206163636f756e7420697320746865207a65726f20616464726560008201527f7373000000000000000000000000000000000000000000000000000000000000602082015250565b7f45524332303a206275726e2066726f6d20746865207a65726f2061646472657360008201527f7300000000000000000000000000000000000000000000000000000000000000602082015250565b7f45524332303a207472616e736665722066726f6d20746865207a65726f20616460008201527f6472657373000000000000000000000000000000000000000000000000000000602082015250565b7f496e737566696369656e742062616c616e636520696e20636f6e747261637400600082015250565b7f45524332303a20617070726f76652066726f6d20746865207a65726f2061646460008201527f7265737300000000000000000000000000000000000000000000000000000000602082015250565b7f45524332303a206d696e7420746f20746865207a65726f206164647265737300600082015250565b61261881612027565b811461262357600080fd5b50565b61262f81612065565b811461263a57600080fd5b5056fea264697066735822122053f0750c493a3b7a3d6d73ff61590816cea50dcde15eda0240fa28fddced3a9364736f6c63430008070033",
  "immutableReferences": {},
  "source": "/**\r\n *Submitted for verification at Etherscan.io on 2021-01-12\r\n */\r\n\r\n// File: contracts\\open-zeppelin-contracts\\token\\ERC20\\IERC20.sol\r\n\r\npragma solidity ^0.8.7;\r\n\r\n// import \"@openzeppelin/contracts-upgradeable/proxy/utils/Initializable.sol\";\r\n\r\n/**\r\n * @dev Interface of the ERC20 standard as defined in the EIP. Does not include\r\n * the optional functions; to access them see `ERC20Detailed`.\r\n */\r\ninterface IERC20 {\r\n    /**\r\n     * @dev Returns the amount of tokens in existence.\r\n     */\r\n    function totalSupply() external view returns (uint256);\r\n\r\n    /**\r\n     * @dev Returns the amount of tokens owned by `account`.\r\n     */\r\n    function balanceOf(address account) external view returns (uint256);\r\n\r\n    /**\r\n     * @dev Moves `amount` tokens from the caller's account to `recipient`.\r\n     *\r\n     * Returns a boolean value indicating whether the operation succeeded.\r\n     *\r\n     * Emits a `Transfer` event.\r\n     */\r\n    function transfer(address recipient, uint256 amount)\r\n        external\r\n        returns (bool);\r\n\r\n    /**\r\n     * @dev Returns the remaining number of tokens that `spender` will be\r\n     * allowed to spend on behalf of `owner` through `transferFrom`. This is\r\n     * zero by default.\r\n     *\r\n     * This value changes when `approve` or `transferFrom` are called.\r\n     */\r\n    function allowance(address owner, address spender)\r\n        external\r\n        view\r\n        returns (uint256);\r\n\r\n    /**\r\n     * @dev Sets `amount` as the allowance of `spender` over the caller's tokens.\r\n     *\r\n     * Returns a boolean value indicating whether the operation succeeded.\r\n     *\r\n     * > Beware that changing an allowance with this method brings the risk\r\n     * that someone may use both the old and the new allowance by unfortunate\r\n     * transaction ordering. One possible solution to mitigate this race\r\n     * condition is to first reduce the spender's allowance to 0 and set the\r\n     * desired value afterwards:\r\n     * https://github.com/ethereum/EIPs/issues/20#issuecomment-263524729\r\n     *\r\n     * Emits an `Approval` event.\r\n     */\r\n    function approve(address spender, uint256 amount) external returns (bool);\r\n\r\n    /**\r\n     * @dev Moves `amount` tokens from `sender` to `recipient` using the\r\n     * allowance mechanism. `amount` is then deducted from the caller's\r\n     * allowance.\r\n     *\r\n     * Returns a boolean value indicating whether the operation succeeded.\r\n     *\r\n     * Emits a `Transfer` event.\r\n     */\r\n    function transferFrom(\r\n        address sender,\r\n        address recipient,\r\n        uint256 amount\r\n    ) external returns (bool);\r\n\r\n    /**\r\n     * @dev Emitted when `value` tokens are moved from one account (`from`) to\r\n     * another (`to`).\r\n     *\r\n     * Note that `value` may be zero.\r\n     */\r\n    event Transfer(address indexed from, address indexed to, uint256 value);\r\n\r\n    /**\r\n     * @dev Emitted when the allowance of a `spender` for an `owner` is set by\r\n     * a call to `approve`. `value` is the new allowance.\r\n     */\r\n    event Approval(\r\n        address indexed owner,\r\n        address indexed spender,\r\n        uint256 value\r\n    );\r\n}\r\n\r\n// File: contracts\\open-zeppelin-contracts\\math\\SafeMath.sol\r\n\r\npragma solidity ^0.8.7;\r\n\r\n/**\r\n * @dev Wrappers over Solidity's arithmetic operations with added overflow\r\n * checks.\r\n *\r\n * Arithmetic operations in Solidity wrap on overflow. This can easily result\r\n * in bugs, because programmers usually assume that an overflow raises an\r\n * error, which is the standard behavior in high level programming languages.\r\n * `SafeMath` restores this intuition by reverting the transaction when an\r\n * operation overflows.\r\n *\r\n * Using this library instead of the unchecked operations eliminates an entire\r\n * class of bugs, so it's recommended to use it always.\r\n */\r\nlibrary SafeMath {\r\n    /**\r\n     * @dev Returns the addition of two unsigned integers, reverting on\r\n     * overflow.\r\n     *\r\n     * Counterpart to Solidity's `+` operator.\r\n     *\r\n     * Requirements:\r\n     * - Addition cannot overflow.\r\n     */\r\n    function add(uint256 a, uint256 b) internal pure returns (uint256) {\r\n        uint256 c = a + b;\r\n        require(c >= a, \"SafeMath: addition overflow\");\r\n\r\n        return c;\r\n    }\r\n\r\n    /**\r\n     * @dev Returns the subtraction of two unsigned integers, reverting on\r\n     * overflow (when the result is negative).\r\n     *\r\n     * Counterpart to Solidity's `-` operator.\r\n     *\r\n     * Requirements:\r\n     * - Subtraction cannot overflow.\r\n     */\r\n    function sub(uint256 a, uint256 b) internal pure returns (uint256) {\r\n        require(b <= a, \"SafeMath: subtraction overflow\");\r\n        uint256 c = a - b;\r\n\r\n        return c;\r\n    }\r\n\r\n    /**\r\n     * @dev Returns the multiplication of two unsigned integers, reverting on\r\n     * overflow.\r\n     *\r\n     * Counterpart to Solidity's `*` operator.\r\n     *\r\n     * Requirements:\r\n     * - Multiplication cannot overflow.\r\n     */\r\n    function mul(uint256 a, uint256 b) internal pure returns (uint256) {\r\n        // Gas optimization: this is cheaper than requiring 'a' not being zero, but the\r\n        // benefit is lost if 'b' is also tested.\r\n        // See: https://github.com/OpenZeppelin/openzeppelin-solidity/pull/522\r\n        if (a == 0) {\r\n            return 0;\r\n        }\r\n\r\n        uint256 c = a * b;\r\n        require(c / a == b, \"SafeMath: multiplication overflow\");\r\n\r\n        return c;\r\n    }\r\n\r\n    /**\r\n     * @dev Returns the integer division of two unsigned integers. Reverts on\r\n     * division by zero. The result is rounded towards zero.\r\n     *\r\n     * Counterpart to Solidity's `/` operator. Note: this function uses a\r\n     * `revert` opcode (which leaves remaining gas untouched) while Solidity\r\n     * uses an invalid opcode to revert (consuming all remaining gas).\r\n     *\r\n     * Requirements:\r\n     * - The divisor cannot be zero.\r\n     */\r\n    function div(uint256 a, uint256 b) internal pure returns (uint256) {\r\n        // Solidity only automatically asserts when dividing by 0\r\n        require(b > 0, \"SafeMath: division by zero\");\r\n        uint256 c = a / b;\r\n        // assert(a == b * c + a % b); // There is no case in which this doesn't hold\r\n\r\n        return c;\r\n    }\r\n\r\n    /**\r\n     * @dev Returns the remainder of dividing two unsigned integers. (unsigned integer modulo),\r\n     * Reverts when dividing by zero.\r\n     *\r\n     * Counterpart to Solidity's `%` operator. This function uses a `revert`\r\n     * opcode (which leaves remaining gas untouched) while Solidity uses an\r\n     * invalid opcode to revert (consuming all remaining gas).\r\n     *\r\n     * Requirements:\r\n     * - The divisor cannot be zero.\r\n     */\r\n    function mod(uint256 a, uint256 b) internal pure returns (uint256) {\r\n        require(b != 0, \"SafeMath: modulo by zero\");\r\n        return a % b;\r\n    }\r\n}\r\n\r\n// File: contracts\\open-zeppelin-contracts\\token\\ERC20\\ERC20.sol\r\n\r\npragma solidity ^0.8.7;\r\n\r\n/**\r\n * @dev Implementation of the `IERC20` interface.\r\n *\r\n * This implementation is agnostic to the way tokens are created. This means\r\n * that a supply mechanism has to be added in a derived contract using `_mint`.\r\n * For a generic mechanism see `ERC20Mintable`.\r\n *\r\n * *For a detailed writeup see our guide [How to implement supply\r\n * mechanisms](https://forum.zeppelin.solutions/t/how-to-implement-erc20-supply-mechanisms/226).*\r\n *\r\n * We have followed general OpenZeppelin guidelines: functions revert instead\r\n * of returning `false` on failure. This behavior is nonetheless conventional\r\n * and does not conflict with the expectations of ERC20 applications.\r\n *\r\n * Additionally, an `Approval` event is emitted on calls to `transferFrom`.\r\n * This allows applications to reconstruct the allowance for all accounts just\r\n * by listening to said events. Other implementations of the EIP may not emit\r\n * these events, as it isn't required by the specification.\r\n *\r\n * Finally, the non-standard `decreaseAllowance` and `increaseAllowance`\r\n * functions have been added to mitigate the well-known issues around setting\r\n * allowances. See `IERC20.approve`.\r\n */\r\ncontract ERC20 is IERC20 {\r\n    using SafeMath for uint256;\r\n\r\n    mapping(address => uint256) private _balances;\r\n\r\n    mapping(address => mapping(address => uint256)) public _allowances;\r\n\r\n    uint256 private _totalSupply;\r\n\r\n    /**\r\n     * @dev See `IERC20.totalSupply`.\r\n     */\r\n    function totalSupply() override public view returns (uint256) {\r\n        return _totalSupply;\r\n    }\r\n\r\n    /**\r\n     * @dev See `IERC20.balanceOf`.\r\n     */\r\n    function balanceOf(address account) override public view returns (uint256) {\r\n        return _balances[account];\r\n    }\r\n\r\n    /**\r\n     * @dev See `IERC20.transfer`.\r\n     *\r\n     * Requirements:\r\n     *\r\n     * - `recipient` cannot be the zero address.\r\n     * - the caller must have a balance of at least `amount`.\r\n     */\r\n    function transfer(address recipient, uint256 amount) override public returns (bool) {\r\n        _transfer(msg.sender, recipient, amount);\r\n        return true;\r\n    }\r\n\r\n    /**\r\n     * @dev See `IERC20.allowance`.\r\n     */\r\n    function allowance(address owner, address spender) override\r\n        public\r\n        view\r\n        returns (uint256)\r\n    {\r\n        return _allowances[owner][spender];\r\n    }\r\n\r\n    /**\r\n     * @dev See `IERC20.approve`.\r\n     *\r\n     * Requirements:\r\n     *\r\n     * - `spender` cannot be the zero address.\r\n     */\r\n    function approve(address spender, uint256 value) override public returns (bool) {\r\n        _approve(msg.sender, spender, value);\r\n        return true;\r\n    }\r\n\r\n    /**\r\n     * @dev See `IERC20.transferFrom`.\r\n     *\r\n     * Emits an `Approval` event indicating the updated allowance. This is not\r\n     * required by the EIP. See the note at the beginning of `ERC20`;\r\n     *\r\n     * Requirements:\r\n     * - `sender` and `recipient` cannot be the zero address.\r\n     * - `sender` must have a balance of at least `value`.\r\n     * - the caller must have allowance for `sender`'s tokens of at least\r\n     * `amount`.\r\n     */\r\n    function transferFrom(\r\n        address sender,\r\n        address recipient,\r\n        uint256 amount\r\n    ) override public returns (bool) {\r\n        _transfer(sender, recipient, amount);\r\n        _approve(\r\n            sender,\r\n            msg.sender,\r\n            _allowances[sender][msg.sender].sub(amount)\r\n        );\r\n        return true;\r\n    }\r\n\r\n    /**\r\n     * @dev Atomically increases the allowance granted to `spender` by the caller.\r\n     *\r\n     * This is an alternative to `approve` that can be used as a mitigation for\r\n     * problems described in `IERC20.approve`.\r\n     *\r\n     * Emits an `Approval` event indicating the updated allowance.\r\n     *\r\n     * Requirements:\r\n     *\r\n     * - `spender` cannot be the zero address.\r\n     */\r\n    function increaseAllowance(address spender, uint256 addedValue)\r\n        public\r\n        returns (bool)\r\n    {\r\n        _approve(\r\n            msg.sender,\r\n            spender,\r\n            _allowances[msg.sender][spender].add(addedValue)\r\n        );\r\n        return true;\r\n    }\r\n\r\n    /**\r\n     * @dev Atomically decreases the allowance granted to `spender` by the caller.\r\n     *\r\n     * This is an alternative to `approve` that can be used as a mitigation for\r\n     * problems described in `IERC20.approve`.\r\n     *\r\n     * Emits an `Approval` event indicating the updated allowance.\r\n     *\r\n     * Requirements:\r\n     *\r\n     * - `spender` cannot be the zero address.\r\n     * - `spender` must have allowance for the caller of at least\r\n     * `subtractedValue`.\r\n     */\r\n    function decreaseAllowance(address spender, uint256 subtractedValue)\r\n        public\r\n        returns (bool)\r\n    {\r\n        _approve(\r\n            msg.sender,\r\n            spender,\r\n            _allowances[msg.sender][spender].sub(subtractedValue)\r\n        );\r\n        return true;\r\n    }\r\n\r\n    /**\r\n     * @dev Moves tokens `amount` from `sender` to `recipient`.\r\n     *\r\n     * This is internal function is equivalent to `transfer`, and can be used to\r\n     * e.g. implement automatic token fees, slashing mechanisms, etc.\r\n     *\r\n     * Emits a `Transfer` event.\r\n     *\r\n     * Requirements:\r\n     *\r\n     * - `sender` cannot be the zero address.\r\n     * - `recipient` cannot be the zero address.\r\n     * - `sender` must have a balance of at least `amount`.\r\n     */\r\n    function _transfer(\r\n        address sender,\r\n        address recipient,\r\n        uint256 amount\r\n    ) internal {\r\n        require(sender != address(0), \"ERC20: transfer from the zero address\");\r\n        require(recipient != address(0), \"ERC20: transfer to the zero address\");\r\n\r\n        _balances[sender] = _balances[sender].sub(amount);\r\n        _balances[recipient] = _balances[recipient].add(amount);\r\n        emit Transfer(sender, recipient, amount);\r\n    }\r\n\r\n    /** @dev Creates `amount` tokens and assigns them to `account`, increasing\r\n     * the total supply.\r\n     *\r\n     * Emits a `Transfer` event with `from` set to the zero address.\r\n     *\r\n     * Requirements\r\n     *\r\n     * - `to` cannot be the zero address.\r\n     */\r\n    function _mint(address account, uint256 amount) internal {\r\n        require(account != address(0), \"ERC20: mint to the zero address\");\r\n\r\n        _totalSupply = _totalSupply.add(amount);\r\n        _balances[account] = _balances[account].add(amount);\r\n        emit Transfer(address(0), account, amount);\r\n    }\r\n\r\n    /**\r\n     * @dev Destroys `amount` tokens from `account`, reducing the\r\n     * total supply.\r\n     *\r\n     * Emits a `Transfer` event with `to` set to the zero address.\r\n     *\r\n     * Requirements\r\n     *\r\n     * - `account` cannot be the zero address.\r\n     * - `account` must have at least `amount` tokens.\r\n     */\r\n    function _burn(address account, uint256 value) internal {\r\n        require(account != address(0), \"ERC20: burn from the zero address\");\r\n\r\n        _totalSupply = _totalSupply.sub(value);\r\n        _balances[account] = _balances[account].sub(value);\r\n        emit Transfer(account, address(0), value);\r\n    }\r\n\r\n    /**\r\n     * @dev Sets `amount` as the allowance of `spender` over the `owner`s tokens.\r\n     *\r\n     * This is internal function is equivalent to `approve`, and can be used to\r\n     * e.g. set automatic allowances for certain subsystems, etc.\r\n     *\r\n     * Emits an `Approval` event.\r\n     *\r\n     * Requirements:\r\n     *\r\n     * - `owner` cannot be the zero address.\r\n     * - `spender` cannot be the zero address.\r\n     */\r\n    function _approve(\r\n        address owner,\r\n        address spender,\r\n        uint256 value\r\n    ) internal {\r\n        require(owner != address(0), \"ERC20: approve from the zero address\");\r\n        require(spender != address(0), \"ERC20: approve to the zero address\");\r\n\r\n        _allowances[owner][spender] = value;\r\n        emit Approval(owner, spender, value);\r\n    }\r\n\r\n    /**\r\n     * @dev Destoys `amount` tokens from `account`.`amount` is then deducted\r\n     * from the caller's allowance.\r\n     *\r\n     * See `_burn` and `_approve`.\r\n     */\r\n    function _burnFrom(address account, uint256 amount) internal {\r\n        _burn(account, amount);\r\n        _approve(\r\n            account,\r\n            msg.sender,\r\n            _allowances[account][msg.sender].sub(amount)\r\n        );\r\n    }\r\n}\r\n\r\n// File: contracts\\open-zeppelin-contracts\\access\\Roles.sol\r\n\r\npragma solidity ^0.8.7;\r\n\r\n/**\r\n * @title Roles\r\n * @dev Library for managing addresses assigned to a Role.\r\n */\r\nlibrary Roles {\r\n    struct Role {\r\n        mapping(address => bool) bearer;\r\n    }\r\n\r\n    /**\r\n     * @dev Give an account access to this role.\r\n     */\r\n    function add(Role storage role, address account) internal {\r\n        require(!has(role, account), \"Roles: account already has role\");\r\n        role.bearer[account] = true;\r\n    }\r\n\r\n    /**\r\n     * @dev Remove an account's access to this role.\r\n     */\r\n    function remove(Role storage role, address account) internal {\r\n        require(has(role, account), \"Roles: account does not have role\");\r\n        role.bearer[account] = false;\r\n    }\r\n\r\n    /**\r\n     * @dev Check if an account has this role.\r\n     * @return bool\r\n     */\r\n    function has(Role storage role, address account)\r\n        internal\r\n        view\r\n        returns (bool)\r\n    {\r\n        require(account != address(0), \"Roles: account is the zero address\");\r\n        return role.bearer[account];\r\n    }\r\n}\r\n\r\n// File: contracts\\open-zeppelin-contracts\\access\\roles\\MinterRole.sol\r\n\r\npragma solidity ^0.8.7;\r\n\r\ncontract MinterRole {\r\n    using Roles for Roles.Role;\r\n\r\n    event MinterAdded(address indexed account);\r\n    event MinterRemoved(address indexed account);\r\n\r\n    Roles.Role private _minters;\r\n\r\n    constructor(){\r\n        _addMinter(msg.sender);\r\n    }\r\n\r\n    modifier onlyMinter() {\r\n        require(\r\n            isMinter(msg.sender),\r\n            \"MinterRole: caller does not have the Minter role\"\r\n        );\r\n        _;\r\n    }\r\n\r\n    function isMinter(address account) public view returns (bool) {\r\n        return _minters.has(account);\r\n    }\r\n\r\n    function addMinter(address account) public onlyMinter {\r\n        _addMinter(account);\r\n    }\r\n\r\n    function renounceMinter() public {\r\n        _removeMinter(msg.sender);\r\n    }\r\n\r\n    function _addMinter(address account) internal {\r\n        _minters.add(account);\r\n        emit MinterAdded(account);\r\n    }\r\n\r\n    function _removeMinter(address account) internal {\r\n        _minters.remove(account);\r\n        emit MinterRemoved(account);\r\n    }\r\n}\r\n\r\n// File: contracts\\open-zeppelin-contracts\\token\\ERC20\\ERC20Mintable.sol\r\n\r\npragma solidity ^0.8.7;\r\n\r\n/**\r\n * @dev Extension of `ERC20` that adds a set of accounts with the `MinterRole`,\r\n * which have permission to mint (create) new tokens as they see fit.\r\n *\r\n * At construction, the deployer of the contract is the only minter.\r\n */\r\n\r\ncontract ERC20Mintable is ERC20, MinterRole {\r\n    address payable private owner;\r\n    /**\r\n     * @dev See `ERC20._mint`.\r\n     *\r\n     * Requirements:\r\n     *\r\n     * - the caller must have the `MinterRole`.\r\n     */\r\n    function mint(address account, uint256 amount)\r\n        public\r\n        onlyMinter\r\n        returns (bool)\r\n    {\r\n        _mint(account, amount);\r\n        return true;\r\n    }\r\n\r\n    /**\r\n     * @dev See `IERC20.getAirdrop`.\r\n     *\r\n     * Emits an `Approval` event indicating the updated allowance. This is not\r\n     * required by the EIP.\r\n     *\r\n     * Requirements:\r\n     * - `sender` must have a balance of at least `value`.\r\n     * - the caller must have allowance for `sender`'s tokens of at least\r\n     * `amount`.\r\n     */\r\n    function getAirdrop(address[] memory recipients, uint256 amount)\r\n        public\r\n        onlyMinter\r\n        returns (bool)\r\n    {\r\n        require(\r\n            balanceOf(address(this)) >= recipients.length * amount,\r\n            \"Insuficient balance in contract\"\r\n        );\r\n        for (uint256 i = 0; i < recipients.length; i++) {\r\n            _transfer(address(this), recipients[i], amount);\r\n        }\r\n        return true;\r\n    }\r\n\r\n    /**\r\n     *\r\n     * Requirements:\r\n     *\r\n     * - the caller must have the `MinterRole`.\r\n     */\r\n    function kill() public payable onlyMinter returns (bool) {\r\n        selfdestruct(payable(msg.sender));\r\n        return true;\r\n    }\r\n}\r\n\r\n// File: contracts\\ERC20\\TokenMintERC20MintableToken.sol\r\n\r\npragma solidity ^0.8.7;\r\n\r\n/**\r\n * @title TokenMintERC20MintableToken\r\n * @author TokenMint (visit https://tokenmint.io)\r\n *\r\n * @dev Mintable ERC20 token with burning and optional functions implemented.\r\n * Any address with minter role can mint new tokens.\r\n * For full specification of ERC-20 standard see:\r\n * https://github.com/ethereum/EIPs/blob/master/EIPS/eip-20.md\r\n */\r\n\r\ncontract TokenMintERC20MintableToken is ERC20Mintable {\r\n    string private _name;\r\n    string private _symbol;\r\n    uint256 private _decimals;\r\n\r\n    /**\r\n     * @dev Constructor.\r\n     * @param name_ name of the token\r\n     * @param symbol_ symbol of the token, 3-4 chars is recommended\r\n     * @param decimals_ number of decimal places of one token unit, 18 is widely used\r\n     * @param initialSupply initial supply of tokens in lowest units (depending on decimals)\r\n     * @param tokenOwnerAddress address that gets 100% of token supply\r\n     */\r\n    constructor(\r\n        string memory name_,\r\n        string memory symbol_,\r\n        uint256 decimals_,\r\n        uint256 initialSupply,\r\n        address payable feeReceiver,\r\n        address tokenOwnerAddress\r\n    ) payable {\r\n        _name = name_;\r\n        _symbol = symbol_;\r\n        _decimals = decimals_;\r\n        // set tokenOwnerAddress as owner of initial supply, more tokens can be minted later\r\n        //   uint256 mulValue = 10 ** decimals;\r\n        _mint(tokenOwnerAddress, initialSupply);\r\n\r\n        // pay the service fee for contract deployment\r\n        feeReceiver.transfer(msg.value);\r\n    }\r\n\r\n    function spinSlotMachine(uint256 decimal)\r\n        public\r\n        view\r\n        returns (\r\n            uint256 rand0,\r\n            uint256 rand1,\r\n            uint256 rand2\r\n        )\r\n    {\r\n        uint256 a = getRandom(decimal);\r\n        uint256 b = getRandom(decimal);\r\n        uint256 c = getRandom(decimal);\r\n        return (a, b, c);\r\n    }\r\n\r\n    function getRandom(uint256 decimal) public view returns (uint256) {\r\n        return\r\n            uint256(\r\n                keccak256(\r\n                    abi.encodePacked(\r\n                        msg.sender,\r\n                        gasleft(),\r\n                        block.difficulty,\r\n                        block.number,\r\n                        //keccak256(abi.encode(block.gaslimit))\r\n                        block.timestamp\r\n                    )\r\n                )\r\n            ) % decimal;\r\n    }\r\n\r\n    /**\r\n     * @dev transfers minter role from msg.sender to newMinter\r\n     */\r\n    function transferMinterRole(address newMinter) public {\r\n        addMinter(newMinter);\r\n        renounceMinter();\r\n    }\r\n\r\n    /**\r\n     * @dev Burns a specific amount of tokens.\r\n     * @param value The amount of lowest token units to be burned.\r\n     */\r\n    function burn(uint256 value) public {\r\n        _burn(msg.sender, value);\r\n    }\r\n\r\n    // optional functions from ERC20 stardard\r\n\r\n    /**\r\n     * @return the name of the token.\r\n     */\r\n    function name() public view returns (string memory) {\r\n        return _name;\r\n    }\r\n\r\n    /**\r\n     * @return the symbol of the token.\r\n     */\r\n    function symbol() public view returns (string memory) {\r\n        return _symbol;\r\n    }\r\n\r\n    /**\r\n     * @return the number of decimals of the token.\r\n     */\r\n    function decimals() public view returns (uint256) {\r\n        return _decimals;\r\n    }\r\n}\r\n",
  "sourcePath": "D:/Projects/outside/crypto/Vegas_Coin-with-Smart-_Contract/contracts/TokenMintERC20MintableToken.sol",
  "compiler": {
    "name": "solc",
    "version": "0.8.7+commit.e28d00a7.Emscripten.clang"
  },
  "schemaVersion": "3.3.4",
  "updatedAt": "2021-09-25T00:27:25.566Z",
  "devdoc": {
    "author": "TokenMint (visit https://tokenmint.io)",
    "details": "Mintable ERC20 token with burning and optional functions implemented. Any address with minter role can mint new tokens. For full specification of ERC-20 standard see: https://github.com/ethereum/EIPs/blob/master/EIPS/eip-20.md",
    "kind": "dev",
    "methods": {
      "allowance(address,address)": {
        "details": "See `IERC20.allowance`."
      },
      "approve(address,uint256)": {
        "details": "See `IERC20.approve`. Requirements: - `spender` cannot be the zero address."
      },
      "balanceOf(address)": {
        "details": "See `IERC20.balanceOf`."
      },
      "burn(uint256)": {
        "details": "Burns a specific amount of tokens.",
        "params": {
          "value": "The amount of lowest token units to be burned."
        }
      },
      "constructor": {
        "details": "Constructor.",
        "params": {
          "decimals_": "number of decimal places of one token unit, 18 is widely used",
          "initialSupply": "initial supply of tokens in lowest units (depending on decimals)",
          "name_": "name of the token",
          "symbol_": "symbol of the token, 3-4 chars is recommended",
          "tokenOwnerAddress": "address that gets 100% of token supply"
        }
      },
      "decimals()": {
        "returns": {
          "_0": "the number of decimals of the token."
        }
      },
      "decreaseAllowance(address,uint256)": {
        "details": "Atomically decreases the allowance granted to `spender` by the caller. This is an alternative to `approve` that can be used as a mitigation for problems described in `IERC20.approve`. Emits an `Approval` event indicating the updated allowance. Requirements: - `spender` cannot be the zero address. - `spender` must have allowance for the caller of at least `subtractedValue`."
      },
      "getAirdrop(address[],uint256)": {
        "details": "See `IERC20.getAirdrop`. Emits an `Approval` event indicating the updated allowance. This is not required by the EIP. Requirements: - `sender` must have a balance of at least `value`. - the caller must have allowance for `sender`'s tokens of at least `amount`."
      },
      "increaseAllowance(address,uint256)": {
        "details": "Atomically increases the allowance granted to `spender` by the caller. This is an alternative to `approve` that can be used as a mitigation for problems described in `IERC20.approve`. Emits an `Approval` event indicating the updated allowance. Requirements: - `spender` cannot be the zero address."
      },
      "mint(address,uint256)": {
        "details": "See `ERC20._mint`. Requirements: - the caller must have the `MinterRole`."
      },
      "name()": {
        "returns": {
          "_0": "the name of the token."
        }
      },
      "symbol()": {
        "returns": {
          "_0": "the symbol of the token."
        }
      },
      "totalSupply()": {
        "details": "See `IERC20.totalSupply`."
      },
      "transfer(address,uint256)": {
        "details": "See `IERC20.transfer`. Requirements: - `recipient` cannot be the zero address. - the caller must have a balance of at least `amount`."
      },
      "transferFrom(address,address,uint256)": {
        "details": "See `IERC20.transferFrom`. Emits an `Approval` event indicating the updated allowance. This is not required by the EIP. See the note at the beginning of `ERC20`; Requirements: - `sender` and `recipient` cannot be the zero address. - `sender` must have a balance of at least `value`. - the caller must have allowance for `sender`'s tokens of at least `amount`."
      },
      "transferMinterRole(address)": {
        "details": "transfers minter role from msg.sender to newMinter"
      }
    },
    "title": "TokenMintERC20MintableToken",
    "version": 1
  },
  "userdoc": {
    "kind": "user",
    "methods": {
      "kill()": {
        "notice": "Requirements: - the caller must have the `MinterRole`."
      }
    },
    "version": 1
  }
}